{
  "_format": "hh-sol-artifact-1",
  "contractName": "PolygonZkEVMMock",
  "sourceName": "contracts/mocks/PolygonZkEVMMock.sol",
  "abi": [
    {
      "inputs": [
        {
          "internalType": "contract IPolygonZkEVMGlobalExitRoot",
          "name": "_globalExitRootManager",
          "type": "address"
        },
        {
          "internalType": "contract IERC20Upgradeable",
          "name": "_matic",
          "type": "address"
        },
        {
          "internalType": "contract IVerifierRollup",
          "name": "_rollupVerifier",
          "type": "address"
        },
        {
          "internalType": "contract IPolygonZkEVMBridge",
          "name": "_bridgeAddress",
          "type": "address"
        },
        {
          "internalType": "contract IDataCommittee",
          "name": "_dataComiteeAddress",
          "type": "address"
        },
        {
          "internalType": "uint64",
          "name": "_chainID",
          "type": "uint64"
        },
        {
          "internalType": "uint64",
          "name": "_forkID",
          "type": "uint64"
        }
      ],
      "stateMutability": "nonpayable",
      "type": "constructor"
    },
    {
      "inputs": [],
      "name": "BatchAlreadyVerified",
      "type": "error"
    },
    {
      "inputs": [],
      "name": "BatchNotSequencedOrNotSequenceEnd",
      "type": "error"
    },
    {
      "inputs": [],
      "name": "ExceedMaxVerifyBatches",
      "type": "error"
    },
    {
      "inputs": [],
      "name": "FinalNumBatchBelowLastVerifiedBatch",
      "type": "error"
    },
    {
      "inputs": [],
      "name": "FinalNumBatchDoesNotMatchPendingState",
      "type": "error"
    },
    {
      "inputs": [],
      "name": "FinalPendingStateNumInvalid",
      "type": "error"
    },
    {
      "inputs": [],
      "name": "ForceBatchNotAllowed",
      "type": "error"
    },
    {
      "inputs": [],
      "name": "ForceBatchTimeoutNotExpired",
      "type": "error"
    },
    {
      "inputs": [],
      "name": "ForceBatchesAlreadyActive",
      "type": "error"
    },
    {
      "inputs": [],
      "name": "ForceBatchesOverflow",
      "type": "error"
    },
    {
      "inputs": [],
      "name": "ForcedDataDoesNotMatch",
      "type": "error"
    },
    {
      "inputs": [],
      "name": "GlobalExitRootNotExist",
      "type": "error"
    },
    {
      "inputs": [],
      "name": "HaltTimeoutNotExpired",
      "type": "error"
    },
    {
      "inputs": [],
      "name": "InitNumBatchAboveLastVerifiedBatch",
      "type": "error"
    },
    {
      "inputs": [],
      "name": "InitNumBatchDoesNotMatchPendingState",
      "type": "error"
    },
    {
      "inputs": [],
      "name": "InvalidProof",
      "type": "error"
    },
    {
      "inputs": [],
      "name": "InvalidRangeBatchTimeTarget",
      "type": "error"
    },
    {
      "inputs": [],
      "name": "InvalidRangeForceBatchTimeout",
      "type": "error"
    },
    {
      "inputs": [],
      "name": "InvalidRangeMultiplierBatchFee",
      "type": "error"
    },
    {
      "inputs": [],
      "name": "NewAccInputHashDoesNotExist",
      "type": "error"
    },
    {
      "inputs": [],
      "name": "NewPendingStateTimeoutMustBeLower",
      "type": "error"
    },
    {
      "inputs": [],
      "name": "NewStateRootNotInsidePrime",
      "type": "error"
    },
    {
      "inputs": [],
      "name": "NewTrustedAggregatorTimeoutMustBeLower",
      "type": "error"
    },
    {
      "inputs": [],
      "name": "NotEnoughMaticAmount",
      "type": "error"
    },
    {
      "inputs": [],
      "name": "OldAccInputHashDoesNotExist",
      "type": "error"
    },
    {
      "inputs": [],
      "name": "OldStateRootDoesNotExist",
      "type": "error"
    },
    {
      "inputs": [],
      "name": "OnlyAdmin",
      "type": "error"
    },
    {
      "inputs": [],
      "name": "OnlyEmergencyState",
      "type": "error"
    },
    {
      "inputs": [],
      "name": "OnlyNotEmergencyState",
      "type": "error"
    },
    {
      "inputs": [],
      "name": "OnlyPendingAdmin",
      "type": "error"
    },
    {
      "inputs": [],
      "name": "OnlyTrustedAggregator",
      "type": "error"
    },
    {
      "inputs": [],
      "name": "OnlyTrustedSequencer",
      "type": "error"
    },
    {
      "inputs": [],
      "name": "PendingStateDoesNotExist",
      "type": "error"
    },
    {
      "inputs": [],
      "name": "PendingStateInvalid",
      "type": "error"
    },
    {
      "inputs": [],
      "name": "PendingStateNotConsolidable",
      "type": "error"
    },
    {
      "inputs": [],
      "name": "PendingStateTimeoutExceedHaltAggregationTimeout",
      "type": "error"
    },
    {
      "inputs": [],
      "name": "SequenceZeroBatches",
      "type": "error"
    },
    {
      "inputs": [],
      "name": "SequencedTimestampBelowForcedTimestamp",
      "type": "error"
    },
    {
      "inputs": [],
      "name": "SequencedTimestampInvalid",
      "type": "error"
    },
    {
      "inputs": [],
      "name": "StoredRootMustBeDifferentThanNewRoot",
      "type": "error"
    },
    {
      "inputs": [],
      "name": "TransactionsLengthAboveMax",
      "type": "error"
    },
    {
      "inputs": [],
      "name": "TrustedAggregatorTimeoutExceedHaltAggregationTimeout",
      "type": "error"
    },
    {
      "inputs": [],
      "name": "TrustedAggregatorTimeoutNotExpired",
      "type": "error"
    },
    {
      "anonymous": false,
      "inputs": [
        {
          "indexed": false,
          "internalType": "address",
          "name": "newAdmin",
          "type": "address"
        }
      ],
      "name": "AcceptAdminRole",
      "type": "event"
    },
    {
      "anonymous": false,
      "inputs": [],
      "name": "ActivateForceBatches",
      "type": "event"
    },
    {
      "anonymous": false,
      "inputs": [
        {
          "indexed": true,
          "internalType": "uint64",
          "name": "numBatch",
          "type": "uint64"
        },
        {
          "indexed": false,
          "internalType": "bytes32",
          "name": "stateRoot",
          "type": "bytes32"
        },
        {
          "indexed": true,
          "internalType": "uint64",
          "name": "pendingStateNum",
          "type": "uint64"
        }
      ],
      "name": "ConsolidatePendingState",
      "type": "event"
    },
    {
      "anonymous": false,
      "inputs": [],
      "name": "EmergencyStateActivated",
      "type": "event"
    },
    {
      "anonymous": false,
      "inputs": [],
      "name": "EmergencyStateDeactivated",
      "type": "event"
    },
    {
      "anonymous": false,
      "inputs": [
        {
          "indexed": true,
          "internalType": "uint64",
          "name": "forceBatchNum",
          "type": "uint64"
        },
        {
          "indexed": false,
          "internalType": "bytes32",
          "name": "lastGlobalExitRoot",
          "type": "bytes32"
        },
        {
          "indexed": false,
          "internalType": "address",
          "name": "sequencer",
          "type": "address"
        },
        {
          "indexed": false,
          "internalType": "bytes",
          "name": "transactions",
          "type": "bytes"
        }
      ],
      "name": "ForceBatch",
      "type": "event"
    },
    {
      "anonymous": false,
      "inputs": [
        {
          "indexed": false,
          "internalType": "uint8",
          "name": "version",
          "type": "uint8"
        }
      ],
      "name": "Initialized",
      "type": "event"
    },
    {
      "anonymous": false,
      "inputs": [
        {
          "indexed": true,
          "internalType": "uint64",
          "name": "numBatch",
          "type": "uint64"
        },
        {
          "indexed": false,
          "internalType": "bytes32",
          "name": "stateRoot",
          "type": "bytes32"
        },
        {
          "indexed": true,
          "internalType": "address",
          "name": "aggregator",
          "type": "address"
        }
      ],
      "name": "OverridePendingState",
      "type": "event"
    },
    {
      "anonymous": false,
      "inputs": [
        {
          "indexed": true,
          "internalType": "address",
          "name": "previousOwner",
          "type": "address"
        },
        {
          "indexed": true,
          "internalType": "address",
          "name": "newOwner",
          "type": "address"
        }
      ],
      "name": "OwnershipTransferred",
      "type": "event"
    },
    {
      "anonymous": false,
      "inputs": [
        {
          "indexed": false,
          "internalType": "bytes32",
          "name": "storedStateRoot",
          "type": "bytes32"
        },
        {
          "indexed": false,
          "internalType": "bytes32",
          "name": "provedStateRoot",
          "type": "bytes32"
        }
      ],
      "name": "ProveNonDeterministicPendingState",
      "type": "event"
    },
    {
      "anonymous": false,
      "inputs": [
        {
          "indexed": true,
          "internalType": "uint64",
          "name": "numBatch",
          "type": "uint64"
        }
      ],
      "name": "SequenceBatches",
      "type": "event"
    },
    {
      "anonymous": false,
      "inputs": [
        {
          "indexed": true,
          "internalType": "uint64",
          "name": "numBatch",
          "type": "uint64"
        }
      ],
      "name": "SequenceForceBatches",
      "type": "event"
    },
    {
      "anonymous": false,
      "inputs": [
        {
          "indexed": false,
          "internalType": "uint64",
          "name": "newforceBatchTimeout",
          "type": "uint64"
        }
      ],
      "name": "SetForceBatchTimeout",
      "type": "event"
    },
    {
      "anonymous": false,
      "inputs": [
        {
          "indexed": false,
          "internalType": "uint16",
          "name": "newMultiplierBatchFee",
          "type": "uint16"
        }
      ],
      "name": "SetMultiplierBatchFee",
      "type": "event"
    },
    {
      "anonymous": false,
      "inputs": [
        {
          "indexed": false,
          "internalType": "uint64",
          "name": "newPendingStateTimeout",
          "type": "uint64"
        }
      ],
      "name": "SetPendingStateTimeout",
      "type": "event"
    },
    {
      "anonymous": false,
      "inputs": [
        {
          "indexed": false,
          "internalType": "address",
          "name": "newTrustedAggregator",
          "type": "address"
        }
      ],
      "name": "SetTrustedAggregator",
      "type": "event"
    },
    {
      "anonymous": false,
      "inputs": [
        {
          "indexed": false,
          "internalType": "uint64",
          "name": "newTrustedAggregatorTimeout",
          "type": "uint64"
        }
      ],
      "name": "SetTrustedAggregatorTimeout",
      "type": "event"
    },
    {
      "anonymous": false,
      "inputs": [
        {
          "indexed": false,
          "internalType": "address",
          "name": "newTrustedSequencer",
          "type": "address"
        }
      ],
      "name": "SetTrustedSequencer",
      "type": "event"
    },
    {
      "anonymous": false,
      "inputs": [
        {
          "indexed": false,
          "internalType": "string",
          "name": "newTrustedSequencerURL",
          "type": "string"
        }
      ],
      "name": "SetTrustedSequencerURL",
      "type": "event"
    },
    {
      "anonymous": false,
      "inputs": [
        {
          "indexed": false,
          "internalType": "uint64",
          "name": "newVerifyBatchTimeTarget",
          "type": "uint64"
        }
      ],
      "name": "SetVerifyBatchTimeTarget",
      "type": "event"
    },
    {
      "anonymous": false,
      "inputs": [
        {
          "indexed": false,
          "internalType": "address",
          "name": "newPendingAdmin",
          "type": "address"
        }
      ],
      "name": "TransferAdminRole",
      "type": "event"
    },
    {
      "anonymous": false,
      "inputs": [
        {
          "indexed": false,
          "internalType": "uint64",
          "name": "numBatch",
          "type": "uint64"
        },
        {
          "indexed": false,
          "internalType": "uint64",
          "name": "forkID",
          "type": "uint64"
        },
        {
          "indexed": false,
          "internalType": "string",
          "name": "version",
          "type": "string"
        }
      ],
      "name": "UpdateZkEVMVersion",
      "type": "event"
    },
    {
      "anonymous": false,
      "inputs": [
        {
          "indexed": true,
          "internalType": "uint64",
          "name": "numBatch",
          "type": "uint64"
        },
        {
          "indexed": false,
          "internalType": "bytes32",
          "name": "stateRoot",
          "type": "bytes32"
        },
        {
          "indexed": true,
          "internalType": "address",
          "name": "aggregator",
          "type": "address"
        }
      ],
      "name": "VerifyBatches",
      "type": "event"
    },
    {
      "anonymous": false,
      "inputs": [
        {
          "indexed": true,
          "internalType": "uint64",
          "name": "numBatch",
          "type": "uint64"
        },
        {
          "indexed": false,
          "internalType": "bytes32",
          "name": "stateRoot",
          "type": "bytes32"
        },
        {
          "indexed": true,
          "internalType": "address",
          "name": "aggregator",
          "type": "address"
        }
      ],
      "name": "VerifyBatchesTrustedAggregator",
      "type": "event"
    },
    {
      "inputs": [],
      "name": "acceptAdminRole",
      "outputs": [],
      "stateMutability": "nonpayable",
      "type": "function"
    },
    {
      "inputs": [
        {
          "internalType": "uint64",
          "name": "sequencedBatchNum",
          "type": "uint64"
        }
      ],
      "name": "activateEmergencyState",
      "outputs": [],
      "stateMutability": "nonpayable",
      "type": "function"
    },
    {
      "inputs": [],
      "name": "activateForceBatches",
      "outputs": [],
      "stateMutability": "nonpayable",
      "type": "function"
    },
    {
      "inputs": [],
      "name": "admin",
      "outputs": [
        {
          "internalType": "address",
          "name": "",
          "type": "address"
        }
      ],
      "stateMutability": "view",
      "type": "function"
    },
    {
      "inputs": [],
      "name": "batchFee",
      "outputs": [
        {
          "internalType": "uint256",
          "name": "",
          "type": "uint256"
        }
      ],
      "stateMutability": "view",
      "type": "function"
    },
    {
      "inputs": [
        {
          "internalType": "uint64",
          "name": "",
          "type": "uint64"
        }
      ],
      "name": "batchNumToStateRoot",
      "outputs": [
        {
          "internalType": "bytes32",
          "name": "",
          "type": "bytes32"
        }
      ],
      "stateMutability": "view",
      "type": "function"
    },
    {
      "inputs": [],
      "name": "bridgeAddress",
      "outputs": [
        {
          "internalType": "contract IPolygonZkEVMBridge",
          "name": "",
          "type": "address"
        }
      ],
      "stateMutability": "view",
      "type": "function"
    },
    {
      "inputs": [
        {
          "internalType": "bytes32",
          "name": "currentAccInputHash",
          "type": "bytes32"
        },
        {
          "internalType": "bytes",
          "name": "transactions",
          "type": "bytes"
        },
        {
          "internalType": "bytes32",
          "name": "globalExitRoot",
          "type": "bytes32"
        },
        {
          "internalType": "uint64",
          "name": "timestamp",
          "type": "uint64"
        },
        {
          "internalType": "address",
          "name": "sequencerAddress",
          "type": "address"
        }
      ],
      "name": "calculateAccInputHash",
      "outputs": [
        {
          "internalType": "bytes32",
          "name": "",
          "type": "bytes32"
        }
      ],
      "stateMutability": "pure",
      "type": "function"
    },
    {
      "inputs": [],
      "name": "calculateRewardPerBatch",
      "outputs": [
        {
          "internalType": "uint256",
          "name": "",
          "type": "uint256"
        }
      ],
      "stateMutability": "view",
      "type": "function"
    },
    {
      "inputs": [],
      "name": "chainID",
      "outputs": [
        {
          "internalType": "uint64",
          "name": "",
          "type": "uint64"
        }
      ],
      "stateMutability": "view",
      "type": "function"
    },
    {
      "inputs": [
        {
          "internalType": "uint256",
          "name": "newStateRoot",
          "type": "uint256"
        }
      ],
      "name": "checkStateRootInsidePrime",
      "outputs": [
        {
          "internalType": "bool",
          "name": "",
          "type": "bool"
        }
      ],
      "stateMutability": "pure",
      "type": "function"
    },
    {
      "inputs": [
        {
          "internalType": "uint64",
          "name": "pendingStateNum",
          "type": "uint64"
        }
      ],
      "name": "consolidatePendingState",
      "outputs": [],
      "stateMutability": "nonpayable",
      "type": "function"
    },
    {
      "inputs": [],
      "name": "dataCommitteeAddress",
      "outputs": [
        {
          "internalType": "contract IDataCommittee",
          "name": "",
          "type": "address"
        }
      ],
      "stateMutability": "view",
      "type": "function"
    },
    {
      "inputs": [],
      "name": "deactivateEmergencyState",
      "outputs": [],
      "stateMutability": "nonpayable",
      "type": "function"
    },
    {
      "inputs": [
        {
          "internalType": "bytes",
          "name": "transactions",
          "type": "bytes"
        },
        {
          "internalType": "uint256",
          "name": "maticAmount",
          "type": "uint256"
        }
      ],
      "name": "forceBatch",
      "outputs": [],
      "stateMutability": "nonpayable",
      "type": "function"
    },
    {
      "inputs": [],
      "name": "forceBatchTimeout",
      "outputs": [
        {
          "internalType": "uint64",
          "name": "",
          "type": "uint64"
        }
      ],
      "stateMutability": "view",
      "type": "function"
    },
    {
      "inputs": [
        {
          "internalType": "uint64",
          "name": "",
          "type": "uint64"
        }
      ],
      "name": "forcedBatches",
      "outputs": [
        {
          "internalType": "bytes32",
          "name": "",
          "type": "bytes32"
        }
      ],
      "stateMutability": "view",
      "type": "function"
    },
    {
      "inputs": [],
      "name": "forkID",
      "outputs": [
        {
          "internalType": "uint64",
          "name": "",
          "type": "uint64"
        }
      ],
      "stateMutability": "view",
      "type": "function"
    },
    {
      "inputs": [],
      "name": "getForcedBatchFee",
      "outputs": [
        {
          "internalType": "uint256",
          "name": "",
          "type": "uint256"
        }
      ],
      "stateMutability": "view",
      "type": "function"
    },
    {
      "inputs": [
        {
          "internalType": "uint64",
          "name": "initNumBatch",
          "type": "uint64"
        },
        {
          "internalType": "uint64",
          "name": "finalNewBatch",
          "type": "uint64"
        },
        {
          "internalType": "bytes32",
          "name": "newLocalExitRoot",
          "type": "bytes32"
        },
        {
          "internalType": "bytes32",
          "name": "oldStateRoot",
          "type": "bytes32"
        },
        {
          "internalType": "bytes32",
          "name": "newStateRoot",
          "type": "bytes32"
        }
      ],
      "name": "getInputSnarkBytes",
      "outputs": [
        {
          "internalType": "bytes",
          "name": "",
          "type": "bytes"
        }
      ],
      "stateMutability": "view",
      "type": "function"
    },
    {
      "inputs": [],
      "name": "getLastVerifiedBatch",
      "outputs": [
        {
          "internalType": "uint64",
          "name": "",
          "type": "uint64"
        }
      ],
      "stateMutability": "view",
      "type": "function"
    },
    {
      "inputs": [
        {
          "internalType": "uint64",
          "name": "pendingStateNum",
          "type": "uint64"
        },
        {
          "internalType": "uint64",
          "name": "initNumBatch",
          "type": "uint64"
        },
        {
          "internalType": "uint64",
          "name": "finalNewBatch",
          "type": "uint64"
        },
        {
          "internalType": "bytes32",
          "name": "newLocalExitRoot",
          "type": "bytes32"
        },
        {
          "internalType": "bytes32",
          "name": "newStateRoot",
          "type": "bytes32"
        }
      ],
      "name": "getNextSnarkInput",
      "outputs": [
        {
          "internalType": "uint256",
          "name": "",
          "type": "uint256"
        }
      ],
      "stateMutability": "view",
      "type": "function"
    },
    {
      "inputs": [],
      "name": "globalExitRootManager",
      "outputs": [
        {
          "internalType": "contract IPolygonZkEVMGlobalExitRoot",
          "name": "",
          "type": "address"
        }
      ],
      "stateMutability": "view",
      "type": "function"
    },
    {
      "inputs": [
        {
          "components": [
            {
              "internalType": "address",
              "name": "admin",
              "type": "address"
            },
            {
              "internalType": "address",
              "name": "trustedSequencer",
              "type": "address"
            },
            {
              "internalType": "uint64",
              "name": "pendingStateTimeout",
              "type": "uint64"
            },
            {
              "internalType": "address",
              "name": "trustedAggregator",
              "type": "address"
            },
            {
              "internalType": "uint64",
              "name": "trustedAggregatorTimeout",
              "type": "uint64"
            }
          ],
          "internalType": "struct PolygonZkEVM.InitializePackedParameters",
          "name": "initializePackedParameters",
          "type": "tuple"
        },
        {
          "internalType": "bytes32",
          "name": "genesisRoot",
          "type": "bytes32"
        },
        {
          "internalType": "string",
          "name": "_trustedSequencerURL",
          "type": "string"
        },
        {
          "internalType": "string",
          "name": "_networkName",
          "type": "string"
        },
        {
          "internalType": "string",
          "name": "_version",
          "type": "string"
        }
      ],
      "name": "initialize",
      "outputs": [],
      "stateMutability": "nonpayable",
      "type": "function"
    },
    {
      "inputs": [],
      "name": "isEmergencyState",
      "outputs": [
        {
          "internalType": "bool",
          "name": "",
          "type": "bool"
        }
      ],
      "stateMutability": "view",
      "type": "function"
    },
    {
      "inputs": [],
      "name": "isForcedBatchDisallowed",
      "outputs": [
        {
          "internalType": "bool",
          "name": "",
          "type": "bool"
        }
      ],
      "stateMutability": "view",
      "type": "function"
    },
    {
      "inputs": [
        {
          "internalType": "uint64",
          "name": "pendingStateNum",
          "type": "uint64"
        }
      ],
      "name": "isPendingStateConsolidable",
      "outputs": [
        {
          "internalType": "bool",
          "name": "",
          "type": "bool"
        }
      ],
      "stateMutability": "view",
      "type": "function"
    },
    {
      "inputs": [],
      "name": "lastBatchSequenced",
      "outputs": [
        {
          "internalType": "uint64",
          "name": "",
          "type": "uint64"
        }
      ],
      "stateMutability": "view",
      "type": "function"
    },
    {
      "inputs": [],
      "name": "lastForceBatch",
      "outputs": [
        {
          "internalType": "uint64",
          "name": "",
          "type": "uint64"
        }
      ],
      "stateMutability": "view",
      "type": "function"
    },
    {
      "inputs": [],
      "name": "lastForceBatchSequenced",
      "outputs": [
        {
          "internalType": "uint64",
          "name": "",
          "type": "uint64"
        }
      ],
      "stateMutability": "view",
      "type": "function"
    },
    {
      "inputs": [],
      "name": "lastPendingState",
      "outputs": [
        {
          "internalType": "uint64",
          "name": "",
          "type": "uint64"
        }
      ],
      "stateMutability": "view",
      "type": "function"
    },
    {
      "inputs": [],
      "name": "lastPendingStateConsolidated",
      "outputs": [
        {
          "internalType": "uint64",
          "name": "",
          "type": "uint64"
        }
      ],
      "stateMutability": "view",
      "type": "function"
    },
    {
      "inputs": [],
      "name": "lastTimestamp",
      "outputs": [
        {
          "internalType": "uint64",
          "name": "",
          "type": "uint64"
        }
      ],
      "stateMutability": "view",
      "type": "function"
    },
    {
      "inputs": [],
      "name": "lastVerifiedBatch",
      "outputs": [
        {
          "internalType": "uint64",
          "name": "",
          "type": "uint64"
        }
      ],
      "stateMutability": "view",
      "type": "function"
    },
    {
      "inputs": [],
      "name": "matic",
      "outputs": [
        {
          "internalType": "contract IERC20Upgradeable",
          "name": "",
          "type": "address"
        }
      ],
      "stateMutability": "view",
      "type": "function"
    },
    {
      "inputs": [],
      "name": "multiplierBatchFee",
      "outputs": [
        {
          "internalType": "uint16",
          "name": "",
          "type": "uint16"
        }
      ],
      "stateMutability": "view",
      "type": "function"
    },
    {
      "inputs": [],
      "name": "networkName",
      "outputs": [
        {
          "internalType": "string",
          "name": "",
          "type": "string"
        }
      ],
      "stateMutability": "view",
      "type": "function"
    },
    {
      "inputs": [
        {
          "internalType": "uint64",
          "name": "initPendingStateNum",
          "type": "uint64"
        },
        {
          "internalType": "uint64",
          "name": "finalPendingStateNum",
          "type": "uint64"
        },
        {
          "internalType": "uint64",
          "name": "initNumBatch",
          "type": "uint64"
        },
        {
          "internalType": "uint64",
          "name": "finalNewBatch",
          "type": "uint64"
        },
        {
          "internalType": "bytes32",
          "name": "newLocalExitRoot",
          "type": "bytes32"
        },
        {
          "internalType": "bytes32",
          "name": "newStateRoot",
          "type": "bytes32"
        },
        {
          "internalType": "bytes32[24]",
          "name": "proof",
          "type": "bytes32[24]"
        }
      ],
      "name": "overridePendingState",
      "outputs": [],
      "stateMutability": "nonpayable",
      "type": "function"
    },
    {
      "inputs": [],
      "name": "owner",
      "outputs": [
        {
          "internalType": "address",
          "name": "",
          "type": "address"
        }
      ],
      "stateMutability": "view",
      "type": "function"
    },
    {
      "inputs": [],
      "name": "pendingAdmin",
      "outputs": [
        {
          "internalType": "address",
          "name": "",
          "type": "address"
        }
      ],
      "stateMutability": "view",
      "type": "function"
    },
    {
      "inputs": [],
      "name": "pendingStateTimeout",
      "outputs": [
        {
          "internalType": "uint64",
          "name": "",
          "type": "uint64"
        }
      ],
      "stateMutability": "view",
      "type": "function"
    },
    {
      "inputs": [
        {
          "internalType": "uint256",
          "name": "",
          "type": "uint256"
        }
      ],
      "name": "pendingStateTransitions",
      "outputs": [
        {
          "internalType": "uint64",
          "name": "timestamp",
          "type": "uint64"
        },
        {
          "internalType": "uint64",
          "name": "lastVerifiedBatch",
          "type": "uint64"
        },
        {
          "internalType": "bytes32",
          "name": "exitRoot",
          "type": "bytes32"
        },
        {
          "internalType": "bytes32",
          "name": "stateRoot",
          "type": "bytes32"
        }
      ],
      "stateMutability": "view",
      "type": "function"
    },
    {
      "inputs": [
        {
          "internalType": "uint64",
          "name": "initPendingStateNum",
          "type": "uint64"
        },
        {
          "internalType": "uint64",
          "name": "finalPendingStateNum",
          "type": "uint64"
        },
        {
          "internalType": "uint64",
          "name": "initNumBatch",
          "type": "uint64"
        },
        {
          "internalType": "uint64",
          "name": "finalNewBatch",
          "type": "uint64"
        },
        {
          "internalType": "bytes32",
          "name": "newLocalExitRoot",
          "type": "bytes32"
        },
        {
          "internalType": "bytes32",
          "name": "newStateRoot",
          "type": "bytes32"
        },
        {
          "internalType": "bytes32[24]",
          "name": "proof",
          "type": "bytes32[24]"
        }
      ],
      "name": "proveNonDeterministicPendingState",
      "outputs": [],
      "stateMutability": "nonpayable",
      "type": "function"
    },
    {
      "inputs": [],
      "name": "renounceOwnership",
      "outputs": [],
      "stateMutability": "nonpayable",
      "type": "function"
    },
    {
      "inputs": [],
      "name": "rollupVerifier",
      "outputs": [
        {
          "internalType": "contract IVerifierRollup",
          "name": "",
          "type": "address"
        }
      ],
      "stateMutability": "view",
      "type": "function"
    },
    {
      "inputs": [
        {
          "components": [
            {
              "internalType": "bytes32",
              "name": "transactionsHash",
              "type": "bytes32"
            },
            {
              "internalType": "bytes32",
              "name": "globalExitRoot",
              "type": "bytes32"
            },
            {
              "internalType": "uint64",
              "name": "timestamp",
              "type": "uint64"
            },
            {
              "internalType": "uint64",
              "name": "minForcedTimestamp",
              "type": "uint64"
            }
          ],
          "internalType": "struct PolygonZkEVM.BatchData[]",
          "name": "batches",
          "type": "tuple[]"
        },
        {
          "internalType": "address",
          "name": "l2Coinbase",
          "type": "address"
        },
        {
          "internalType": "bytes",
          "name": "signaturesAndAddrs",
          "type": "bytes"
        }
      ],
      "name": "sequenceBatches",
      "outputs": [],
      "stateMutability": "nonpayable",
      "type": "function"
    },
    {
      "inputs": [
        {
          "components": [
            {
              "internalType": "bytes",
              "name": "transactions",
              "type": "bytes"
            },
            {
              "internalType": "bytes32",
              "name": "globalExitRoot",
              "type": "bytes32"
            },
            {
              "internalType": "uint64",
              "name": "minForcedTimestamp",
              "type": "uint64"
            }
          ],
          "internalType": "struct PolygonZkEVM.ForcedBatchData[]",
          "name": "batches",
          "type": "tuple[]"
        }
      ],
      "name": "sequenceForceBatches",
      "outputs": [],
      "stateMutability": "nonpayable",
      "type": "function"
    },
    {
      "inputs": [
        {
          "internalType": "uint64",
          "name": "",
          "type": "uint64"
        }
      ],
      "name": "sequencedBatches",
      "outputs": [
        {
          "internalType": "bytes32",
          "name": "accInputHash",
          "type": "bytes32"
        },
        {
          "internalType": "uint64",
          "name": "sequencedTimestamp",
          "type": "uint64"
        },
        {
          "internalType": "uint64",
          "name": "previousLastBatchSequenced",
          "type": "uint64"
        }
      ],
      "stateMutability": "view",
      "type": "function"
    },
    {
      "inputs": [
        {
          "internalType": "uint16",
          "name": "newBatchFee",
          "type": "uint16"
        }
      ],
      "name": "setBatchFee",
      "outputs": [],
      "stateMutability": "nonpayable",
      "type": "function"
    },
    {
      "inputs": [
        {
          "internalType": "uint64",
          "name": "newforceBatchTimeout",
          "type": "uint64"
        }
      ],
      "name": "setForceBatchTimeout",
      "outputs": [],
      "stateMutability": "nonpayable",
      "type": "function"
    },
    {
      "inputs": [
        {
          "internalType": "uint16",
          "name": "newMultiplierBatchFee",
          "type": "uint16"
        }
      ],
      "name": "setMultiplierBatchFee",
      "outputs": [],
      "stateMutability": "nonpayable",
      "type": "function"
    },
    {
      "inputs": [
        {
          "internalType": "string",
          "name": "_networkName",
          "type": "string"
        }
      ],
      "name": "setNetworkName",
      "outputs": [],
      "stateMutability": "nonpayable",
      "type": "function"
    },
    {
      "inputs": [
        {
          "internalType": "uint64",
          "name": "newPendingStateTimeout",
          "type": "uint64"
        }
      ],
      "name": "setPendingStateTimeout",
      "outputs": [],
      "stateMutability": "nonpayable",
      "type": "function"
    },
    {
      "inputs": [
        {
          "internalType": "uint64",
          "name": "_numBatch",
          "type": "uint64"
        }
      ],
      "name": "setSequencedBatch",
      "outputs": [],
      "stateMutability": "nonpayable",
      "type": "function"
    },
    {
      "inputs": [
        {
          "internalType": "uint64",
          "name": "batchNum",
          "type": "uint64"
        },
        {
          "internalType": "bytes32",
          "name": "accInputData",
          "type": "bytes32"
        },
        {
          "internalType": "uint64",
          "name": "timestamp",
          "type": "uint64"
        },
        {
          "internalType": "uint64",
          "name": "lastPendingStateConsolidated",
          "type": "uint64"
        }
      ],
      "name": "setSequencedBatches",
      "outputs": [],
      "stateMutability": "nonpayable",
      "type": "function"
    },
    {
      "inputs": [
        {
          "internalType": "bytes32",
          "name": "newStateRoot",
          "type": "bytes32"
        },
        {
          "internalType": "uint64",
          "name": "batchNum",
          "type": "uint64"
        }
      ],
      "name": "setStateRoot",
      "outputs": [],
      "stateMutability": "nonpayable",
      "type": "function"
    },
    {
      "inputs": [
        {
          "internalType": "address",
          "name": "newTrustedAggregator",
          "type": "address"
        }
      ],
      "name": "setTrustedAggregator",
      "outputs": [],
      "stateMutability": "nonpayable",
      "type": "function"
    },
    {
      "inputs": [
        {
          "internalType": "uint64",
          "name": "newTrustedAggregatorTimeout",
          "type": "uint64"
        }
      ],
      "name": "setTrustedAggregatorTimeout",
      "outputs": [],
      "stateMutability": "nonpayable",
      "type": "function"
    },
    {
      "inputs": [
        {
          "internalType": "address",
          "name": "newTrustedSequencer",
          "type": "address"
        }
      ],
      "name": "setTrustedSequencer",
      "outputs": [],
      "stateMutability": "nonpayable",
      "type": "function"
    },
    {
      "inputs": [
        {
          "internalType": "string",
          "name": "newTrustedSequencerURL",
          "type": "string"
        }
      ],
      "name": "setTrustedSequencerURL",
      "outputs": [],
      "stateMutability": "nonpayable",
      "type": "function"
    },
    {
      "inputs": [
        {
          "internalType": "uint64",
          "name": "_numBatch",
          "type": "uint64"
        }
      ],
      "name": "setVerifiedBatch",
      "outputs": [],
      "stateMutability": "nonpayable",
      "type": "function"
    },
    {
      "inputs": [
        {
          "internalType": "uint64",
          "name": "newVerifyBatchTimeTarget",
          "type": "uint64"
        }
      ],
      "name": "setVerifyBatchTimeTarget",
      "outputs": [],
      "stateMutability": "nonpayable",
      "type": "function"
    },
    {
      "inputs": [
        {
          "internalType": "address",
          "name": "newPendingAdmin",
          "type": "address"
        }
      ],
      "name": "transferAdminRole",
      "outputs": [],
      "stateMutability": "nonpayable",
      "type": "function"
    },
    {
      "inputs": [
        {
          "internalType": "address",
          "name": "newOwner",
          "type": "address"
        }
      ],
      "name": "transferOwnership",
      "outputs": [],
      "stateMutability": "nonpayable",
      "type": "function"
    },
    {
      "inputs": [],
      "name": "trustedAggregator",
      "outputs": [
        {
          "internalType": "address",
          "name": "",
          "type": "address"
        }
      ],
      "stateMutability": "view",
      "type": "function"
    },
    {
      "inputs": [],
      "name": "trustedAggregatorTimeout",
      "outputs": [
        {
          "internalType": "uint64",
          "name": "",
          "type": "uint64"
        }
      ],
      "stateMutability": "view",
      "type": "function"
    },
    {
      "inputs": [],
      "name": "trustedSequencer",
      "outputs": [
        {
          "internalType": "address",
          "name": "",
          "type": "address"
        }
      ],
      "stateMutability": "view",
      "type": "function"
    },
    {
      "inputs": [],
      "name": "trustedSequencerURL",
      "outputs": [
        {
          "internalType": "string",
          "name": "",
          "type": "string"
        }
      ],
      "stateMutability": "view",
      "type": "function"
    },
    {
      "inputs": [
        {
          "internalType": "uint64",
          "name": "pendingStateNum",
          "type": "uint64"
        },
        {
          "internalType": "uint64",
          "name": "initNumBatch",
          "type": "uint64"
        },
        {
          "internalType": "uint64",
          "name": "finalNewBatch",
          "type": "uint64"
        },
        {
          "internalType": "bytes32",
          "name": "newLocalExitRoot",
          "type": "bytes32"
        },
        {
          "internalType": "bytes32",
          "name": "newStateRoot",
          "type": "bytes32"
        },
        {
          "internalType": "uint256[2]",
          "name": "proofA",
          "type": "uint256[2]"
        },
        {
          "internalType": "uint256[2][2]",
          "name": "proofB",
          "type": "uint256[2][2]"
        },
        {
          "internalType": "uint256[2]",
          "name": "proofC",
          "type": "uint256[2]"
        }
      ],
      "name": "trustedVerifyBatchesMock",
      "outputs": [],
      "stateMutability": "nonpayable",
      "type": "function"
    },
    {
      "inputs": [
        {
          "internalType": "uint64",
          "name": "newLastVerifiedBatch",
          "type": "uint64"
        }
      ],
      "name": "updateBatchFee",
      "outputs": [],
      "stateMutability": "nonpayable",
      "type": "function"
    },
    {
      "inputs": [],
      "name": "verifyBatchTimeTarget",
      "outputs": [
        {
          "internalType": "uint64",
          "name": "",
          "type": "uint64"
        }
      ],
      "stateMutability": "view",
      "type": "function"
    },
    {
      "inputs": [
        {
          "internalType": "uint64",
          "name": "pendingStateNum",
          "type": "uint64"
        },
        {
          "internalType": "uint64",
          "name": "initNumBatch",
          "type": "uint64"
        },
        {
          "internalType": "uint64",
          "name": "finalNewBatch",
          "type": "uint64"
        },
        {
          "internalType": "bytes32",
          "name": "newLocalExitRoot",
          "type": "bytes32"
        },
        {
          "internalType": "bytes32",
          "name": "newStateRoot",
          "type": "bytes32"
        },
        {
          "internalType": "bytes32[24]",
          "name": "proof",
          "type": "bytes32[24]"
        }
      ],
      "name": "verifyBatches",
      "outputs": [],
      "stateMutability": "nonpayable",
      "type": "function"
    },
    {
      "inputs": [
        {
          "internalType": "uint64",
          "name": "pendingStateNum",
          "type": "uint64"
        },
        {
          "internalType": "uint64",
          "name": "initNumBatch",
          "type": "uint64"
        },
        {
          "internalType": "uint64",
          "name": "finalNewBatch",
          "type": "uint64"
        },
        {
          "internalType": "bytes32",
          "name": "newLocalExitRoot",
          "type": "bytes32"
        },
        {
          "internalType": "bytes32",
          "name": "newStateRoot",
          "type": "bytes32"
        },
        {
          "internalType": "bytes32[24]",
          "name": "proof",
          "type": "bytes32[24]"
        }
      ],
      "name": "verifyBatchesTrustedAggregator",
      "outputs": [],
      "stateMutability": "nonpayable",
      "type": "function"
    }
  ],
  "bytecode": "0x61016060405234801562000011575f80fd5b506040516200708d3803806200708d8339810160408190526200003491620000a9565b6001600160a01b0396871660c05294861660805292851660a05290841660e052909216610100526001600160401b0391821661012052166101405262000147565b6001600160a01b03811681146200008a575f80fd5b50565b80516001600160401b0381168114620000a4575f80fd5b919050565b5f805f805f805f60e0888a031215620000c0575f80fd5b8751620000cd8162000075565b6020890151909750620000e08162000075565b6040890151909650620000f38162000075565b6060890151909550620001068162000075565b6080890151909450620001198162000075565b92506200012960a089016200008d565b91506200013960c089016200008d565b905092959891949750929550565b60805160a05160c05160e051610100516101205161014051616e68620002255f395f818161087001528181611ac40152613f3101525f8181610a020152611a9a01525f81816106ea015261262e01525f81816109c801528181612878015281816145c20152615b1001525f8181610b930152818161177a01528181611c3601528181611e010152818161240d01528181612e9401528181614832015261581401525f8181610c5301528181614fe1015261544201525f8181610ad001528181612846015281816133bc0152818161480701526150df0152616e685ff3fe608060405234801561000f575f80fd5b50600436106104a9575f3560e01c80638c3d730111610277578063c754c7ed11610162578063e7a7ed02116100dd578063f2fde38b11610093578063f851a44011610079578063f851a44014610cee578063f8b823e414610d0e578063fe16564f14610d17575f80fd5b8063f2fde38b14610cc8578063f4d0841214610cdb575f80fd5b8063eaeb077b116100c3578063eaeb077b14610c75578063ed6b010414610c88578063f14916d614610cb5575f80fd5b8063e7a7ed0214610c1e578063e8bf92ed14610c4e575f80fd5b8063d2e129f911610132578063d939b31511610118578063d939b31514610bdb578063dbc1697614610c03578063e0d1744114610c0b575f80fd5b8063d2e129f914610bb5578063d8d1091b14610bc8575f80fd5b8063c754c7ed14610b20578063c89e42df14610b4c578063cfa8ed4714610b5f578063d02103ca14610b8e575f80fd5b8063ada8f919116101f2578063b4f77ea9116101c2578063ba58ae39116101a8578063ba58ae3914610af2578063c0cad30214610b05578063c0ed84e014610b18575f80fd5b8063b4f77ea914610ab8578063b6b0b09714610acb575f80fd5b8063ada8f919146109ea578063adc879e9146109fd578063afd23cbe14610a24578063b4d63f5814610a52575f80fd5b80639aa972a3116102475780639c9f3dfe1161022d5780639c9f3dfe1461099d578063a066215c146109b0578063a3c573eb146109c3575f80fd5b80639aa972a3146109775780639b7967601461098a575f80fd5b80638c3d7301146109365780638da5cb5b1461093e57806396dc3d391461095c57806399f5634e1461096f575f80fd5b80634a1a89a711610397578063621dd411116103125780637215541a116102e2578063831c7ead116102c8578063831c7ead1461086b578063837a473814610892578063841b24d714610906575f80fd5b80637215541a146108445780637fcb365314610857575f80fd5b8063621dd411146107f75780636b8616ce1461080a5780636ff512cc14610829578063715018a61461083c575f80fd5b80635392c5e011610367578063574f649e1161034d578063574f649e146107465780635ec91958146107e757806360469169146107ef575f80fd5b80635392c5e01461071f578063542028d51461073e575f80fd5b80634a1a89a7146106b25780634a910e6a146106d25780634df61d24146106e55780634e4877061461070c575f80fd5b80632987898311610427578063394218e9116103f7578063438a5399116103dd578063438a5399146106635780634560526714610676578063458c04771461069e575f80fd5b8063394218e914610630578063423fa85614610643575f80fd5b806329878983146105cb5780632b0006fa146105f75780632c1f816a1461060a578063383b3be81461061d575f80fd5b806315064c961161047c57806319d8ac611161046257806319d8ac611461055f578063220d7899146105735780632678224714610586575f80fd5b806315064c961461052f5780631816b7e51461054c575f80fd5b80630a0d9fbe146104ad5780630eaa86ea146104e4578063107bf28c1461050557806310a01a721461051a575b5f80fd5b606f546104c690610100900467ffffffffffffffff1681565b60405167ffffffffffffffff90911681526020015b60405180910390f35b6104f76104f23660046160d6565b610d2a565b6040519081526020016104db565b61050d6111fa565b6040516104db9190616192565b61052d6105283660046161c1565b611286565b005b606f5461053c9060ff1681565b60405190151581526020016104db565b61052d61055a36600461624e565b611834565b6073546104c69067ffffffffffffffff1681565b61050d61058136600461626f565b61194c565b607b546105a69073ffffffffffffffffffffffffffffffffffffffff1681565b60405173ffffffffffffffffffffffffffffffffffffffff90911681526020016104db565b6074546105a69068010000000000000000900473ffffffffffffffffffffffffffffffffffffffff1681565b61052d6106053660046162c9565b611b22565b61052d61061836600461632d565b611cec565b61053c61062b3660046163a2565b611ef4565b61052d61063e3660046163a2565b611f49565b6073546104c69068010000000000000000900467ffffffffffffffff1681565b61052d610671366004616423565b6120cd565b6073546104c690700100000000000000000000000000000000900467ffffffffffffffff1681565b6079546104c69067ffffffffffffffff1681565b6079546104c69068010000000000000000900467ffffffffffffffff1681565b61052d6106e03660046163a2565b612933565b6105a67f000000000000000000000000000000000000000000000000000000000000000081565b61052d61071a3660046163a2565b6129e6565b6104f761072d3660046163a2565b60756020525f908152604090205481565b61050d612b6a565b6104f76107543660046165a0565b835160209485012060408051808701979097528681019190915260608087019490945260c09290921b7fffffffffffffffff00000000000000000000000000000000000000000000000016608086015290911b7fffffffffffffffffffffffffffffffffffffffff0000000000000000000000001660888401528051808403607c018152609c9093019052815191012090565b61052d612b77565b6104f7612c76565b61052d6108053660046162c9565b612c8b565b6104f76108183660046163a2565b60716020525f908152604090205481565b61052d61083736600461660d565b613011565b61052d6130e6565b61052d6108523660046163a2565b6130f9565b6074546104c69067ffffffffffffffff1681565b6104c67f000000000000000000000000000000000000000000000000000000000000000081565b6108da6108a0366004616626565b60786020525f908152604090208054600182015460029092015467ffffffffffffffff808316936801000000000000000090930416919084565b6040805167ffffffffffffffff95861681529490931660208501529183015260608201526080016104db565b6079546104c6907801000000000000000000000000000000000000000000000000900467ffffffffffffffff1681565b61052d613266565b60335473ffffffffffffffffffffffffffffffffffffffff166105a6565b61052d61096a3660046163a2565b613332565b6104f7613375565b61052d61098536600461632d565b6134c8565b61052d6109983660046163a2565b613578565b61052d6109ab3660046163a2565b6135c7565b61052d6109be3660046163a2565b613743565b6105a67f000000000000000000000000000000000000000000000000000000000000000081565b61052d6109f836600461660d565b613849565b6104c67f000000000000000000000000000000000000000000000000000000000000000081565b606f54610a3f906901000000000000000000900461ffff1681565b60405161ffff90911681526020016104db565b610a92610a603660046163a2565b60726020525f90815260409020805460019091015467ffffffffffffffff808216916801000000000000000090041683565b6040805193845267ffffffffffffffff92831660208501529116908201526060016104db565b61052d610ac63660046163a2565b61390d565b6105a67f000000000000000000000000000000000000000000000000000000000000000081565b61053c610b00366004616626565b61391e565b61052d610b1336600461663d565b6139a6565b6104c66139be565b607b546104c69074010000000000000000000000000000000000000000900467ffffffffffffffff1681565b61052d610b5a36600461663d565b613a11565b606f546105a6906b010000000000000000000000900473ffffffffffffffffffffffffffffffffffffffff1681565b6105a67f000000000000000000000000000000000000000000000000000000000000000081565b61052d610bc336600461666f565b613a9e565b61052d610bd636600461671a565b613fd4565b6079546104c690700100000000000000000000000000000000900467ffffffffffffffff1681565b61052d61456f565b61052d610c19366004616789565b614643565b6073546104c6907801000000000000000000000000000000000000000000000000900467ffffffffffffffff1681565b6105a67f000000000000000000000000000000000000000000000000000000000000000081565b61052d610c833660046167d3565b6146d2565b607b5461053c907c0100000000000000000000000000000000000000000000000000000000900460ff1681565b61052d610cc336600461660d565b614ac2565b61052d610cd636600461660d565b614b94565b61052d610ce936600461624e565b614c48565b607a546105a69073ffffffffffffffffffffffffffffffffffffffff1681565b6104f760705481565b61052d610d2536600461681b565b614ca2565b5f805f610d356139be565b905067ffffffffffffffff881615610f015760795467ffffffffffffffff9081169089161115610e12576040517f08c379a000000000000000000000000000000000000000000000000000000000815260206004820152605860248201527f506f6c79676f6e5a6b45564d3a3a766572696679426174636865733a2070656e60448201527f64696e6753746174654e756d206d757374206265206c657373206f722065717560648201527f616c207468616e206c61737450656e64696e6753746174650000000000000000608482015260a4015b60405180910390fd5b67ffffffffffffffff8089165f908152607860205260409020600281015481549094509091898116680100000000000000009092041614610efb576040517f08c379a000000000000000000000000000000000000000000000000000000000815260206004820152604c60248201527f506f6c79676f6e5a6b45564d3a3a766572696679426174636865733a20696e6960448201527f744e756d4261746368206d757374206d61746368207468652070656e64696e6760648201527f2073746174652062617463680000000000000000000000000000000000000000608482015260a401610e09565b50611099565b67ffffffffffffffff87165f90815260756020526040902054915081610fcf576040517f08c379a000000000000000000000000000000000000000000000000000000000815260206004820152604360248201527f506f6c79676f6e5a6b45564d3a3a766572696679426174636865733a20696e6960448201527f744e756d426174636820737461746520726f6f7420646f6573206e6f7420657860648201527f6973740000000000000000000000000000000000000000000000000000000000608482015260a401610e09565b8067ffffffffffffffff168767ffffffffffffffff161115611099576040517f08c379a000000000000000000000000000000000000000000000000000000000815260206004820152605d60248201527f506f6c79676f6e5a6b45564d3a3a766572696679426174636865733a20696e6960448201527f744e756d4261746368206d757374206265206c657373206f7220657175616c2060648201527f7468616e2063757272656e744c61737456657269666965644261746368000000608482015260a401610e09565b8067ffffffffffffffff168667ffffffffffffffff1611611162576040517f08c379a000000000000000000000000000000000000000000000000000000000815260206004820152605760248201527f506f6c79676f6e5a6b45564d3a3a766572696679426174636865733a2066696e60448201527f616c4e65774261746368206d75737420626520626967676572207468616e206360648201527f757272656e744c61737456657269666965644261746368000000000000000000608482015260a401610e09565b5f611170888888868961194c565b90505f7f30644e72e131a029b85045b68181585d2833e84879b9709143e1f593f00000016002836040516111a49190616845565b602060405180830381855afa1580156111bf573d5f803e3d5ffd5b5050506040513d601f19601f820116820180604052508101906111e29190616860565b6111ec91906168a4565b9a9950505050505050505050565b60778054611207906168b7565b80601f0160208091040260200160405190810160405280929190818152602001828054611233906168b7565b801561127e5780601f106112555761010080835404028352916020019161127e565b820191905f5260205f20905b81548152906001019060200180831161126157829003601f168201915b505050505081565b61128e614cc4565b5f806112986139be565b905067ffffffffffffffff8a161561145f5760795467ffffffffffffffff908116908b161115611370576040517f08c379a000000000000000000000000000000000000000000000000000000000815260206004820152605860248201527f506f6c79676f6e5a6b45564d3a3a766572696679426174636865733a2070656e60448201527f64696e6753746174654e756d206d757374206265206c657373206f722065717560648201527f616c207468616e206c61737450656e64696e6753746174650000000000000000608482015260a401610e09565b67ffffffffffffffff808b165f9081526078602052604090206002810154815490945090918b8116680100000000000000009092041614611459576040517f08c379a000000000000000000000000000000000000000000000000000000000815260206004820152604c60248201527f506f6c79676f6e5a6b45564d3a3a766572696679426174636865733a20696e6960448201527f744e756d4261746368206d757374206d61746368207468652070656e64696e6760648201527f2073746174652062617463680000000000000000000000000000000000000000608482015260a401610e09565b506115f7565b67ffffffffffffffff89165f9081526075602052604090205491508161152d576040517f08c379a000000000000000000000000000000000000000000000000000000000815260206004820152604360248201527f506f6c79676f6e5a6b45564d3a3a766572696679426174636865733a20696e6960448201527f744e756d426174636820737461746520726f6f7420646f6573206e6f7420657860648201527f6973740000000000000000000000000000000000000000000000000000000000608482015260a401610e09565b8067ffffffffffffffff168967ffffffffffffffff1611156115f7576040517f08c379a000000000000000000000000000000000000000000000000000000000815260206004820152605d60248201527f506f6c79676f6e5a6b45564d3a3a766572696679426174636865733a20696e6960448201527f744e756d4261746368206d757374206265206c657373206f7220657175616c2060648201527f7468616e2063757272656e744c61737456657269666965644261746368000000608482015260a401610e09565b8067ffffffffffffffff168867ffffffffffffffff16116116c0576040517f08c379a000000000000000000000000000000000000000000000000000000000815260206004820152605760248201527f506f6c79676f6e5a6b45564d3a3a766572696679426174636865733a2066696e60448201527f616c4e65774261746368206d75737420626520626967676572207468616e206360648201527f757272656e744c61737456657269666965644261746368000000000000000000608482015260a401610e09565b5f6116ce8a8a8a868b61194c565b607480547fffffffffffffffffffffffffffffffffffffffffffffffff00000000000000001667ffffffffffffffff8c81169182179092555f908152607560205260409020899055607954919250161561174b57607980547fffffffffffffffffffffffffffffffff000000000000000000000000000000001690555b6040517f33d6247d000000000000000000000000000000000000000000000000000000008152600481018990527f000000000000000000000000000000000000000000000000000000000000000073ffffffffffffffffffffffffffffffffffffffff16906333d6247d906024015f604051808303815f87803b1580156117d0575f80fd5b505af11580156117e2573d5f803e3d5ffd5b505060405189815233925067ffffffffffffffff8c1691507fcb339b570a7f0b25afa7333371ff11192092a0aeace12b671f4c212f2815c6fe9060200160405180910390a35050505050505050505050565b607a5473ffffffffffffffffffffffffffffffffffffffff163314611885576040517f4755657900000000000000000000000000000000000000000000000000000000815260040160405180910390fd5b6103e88161ffff16108061189e57506103ff8161ffff16115b156118d5576040517f4c2533c800000000000000000000000000000000000000000000000000000000815260040160405180910390fd5b606f80547fffffffffffffffffffffffffffffffffffffffffff0000ffffffffffffffffff16690100000000000000000061ffff8416908102919091179091556040519081527f7019933d795eba185c180209e8ae8bffbaa25bcef293364687702c31f4d302c5906020015b60405180910390a150565b67ffffffffffffffff8086165f81815260726020526040808220549388168252902054606092911580159061197f575081155b156119b6576040517f6818c29e00000000000000000000000000000000000000000000000000000000815260040160405180910390fd5b806119ed576040517f66385b5100000000000000000000000000000000000000000000000000000000815260040160405180910390fd5b6119f68461391e565b611a2c576040517f176b913c00000000000000000000000000000000000000000000000000000000815260040160405180910390fd5b604080517fffffffffffffffffffffffffffffffffffffffff0000000000000000000000003360601b166020820152603481019690965260548601929092527fffffffffffffffff00000000000000000000000000000000000000000000000060c098891b811660748701527f0000000000000000000000000000000000000000000000000000000000000000891b8116607c8701527f0000000000000000000000000000000000000000000000000000000000000000891b81166084870152608c86019490945260ac85015260cc840194909452509290931b90911660ec830152805180830360d401815260f4909201905290565b60745468010000000000000000900473ffffffffffffffffffffffffffffffffffffffff163314611b7f576040517fbbcbbc0500000000000000000000000000000000000000000000000000000000815260040160405180910390fd5b611b8d868686868686614d45565b607480547fffffffffffffffffffffffffffffffffffffffffffffffff00000000000000001667ffffffffffffffff8681169182179092555f9081526075602052604090208390556079541615611c0757607980547fffffffffffffffffffffffffffffffff000000000000000000000000000000001690555b6040517f33d6247d000000000000000000000000000000000000000000000000000000008152600481018490527f000000000000000000000000000000000000000000000000000000000000000073ffffffffffffffffffffffffffffffffffffffff16906333d6247d906024015f604051808303815f87803b158015611c8c575f80fd5b505af1158015611c9e573d5f803e3d5ffd5b505060405184815233925067ffffffffffffffff871691507fcb339b570a7f0b25afa7333371ff11192092a0aeace12b671f4c212f2815c6fe906020015b60405180910390a3505050505050565b60745468010000000000000000900473ffffffffffffffffffffffffffffffffffffffff163314611d49576040517fbbcbbc0500000000000000000000000000000000000000000000000000000000815260040160405180910390fd5b611d5887878787878787615113565b607480547fffffffffffffffffffffffffffffffffffffffffffffffff00000000000000001667ffffffffffffffff8681169182179092555f9081526075602052604090208390556079541615611dd257607980547fffffffffffffffffffffffffffffffff000000000000000000000000000000001690555b6040517f33d6247d000000000000000000000000000000000000000000000000000000008152600481018490527f000000000000000000000000000000000000000000000000000000000000000073ffffffffffffffffffffffffffffffffffffffff16906333d6247d906024015f604051808303815f87803b158015611e57575f80fd5b505af1158015611e69573d5f803e3d5ffd5b50506079805477ffffffffffffffffffffffffffffffffffffffffffffffff167a093a800000000000000000000000000000000000000000000000001790555050604051828152339067ffffffffffffffff8616907fcc1b5520188bf1dd3e63f98164b577c4d75c11a619ddea692112f0d1aec4cf729060200160405180910390a350505050505050565b60795467ffffffffffffffff8281165f9081526078602052604081205490924292611f379270010000000000000000000000000000000090920481169116616935565b67ffffffffffffffff16111592915050565b607a5473ffffffffffffffffffffffffffffffffffffffff163314611f9a576040517f4755657900000000000000000000000000000000000000000000000000000000815260040160405180910390fd5b62093a8067ffffffffffffffff82161115611fe1576040517f1d06e87900000000000000000000000000000000000000000000000000000000815260040160405180910390fd5b606f5460ff166120505760795467ffffffffffffffff7801000000000000000000000000000000000000000000000000909104811690821610612050576040517f401636df00000000000000000000000000000000000000000000000000000000815260040160405180910390fd5b6079805477ffffffffffffffffffffffffffffffffffffffffffffffff16780100000000000000000000000000000000000000000000000067ffffffffffffffff8416908102919091179091556040519081527f1f4fa24c2e4bad19a7f3ec5c5485f70d46c798461c2e684f55bbd0fc661373a190602001611941565b606f5460ff161561210a576040517f2f0047fc00000000000000000000000000000000000000000000000000000000815260040160405180910390fd5b606f546b010000000000000000000000900473ffffffffffffffffffffffffffffffffffffffff16331461216a576040517f11e7be1500000000000000000000000000000000000000000000000000000000815260040160405180910390fd5b835f8190036121a5576040517fcb591a5f00000000000000000000000000000000000000000000000000000000815260040160405180910390fd5b6103e88111156121e1576040517fb59f753a00000000000000000000000000000000000000000000000000000000815260040160405180910390fd5b60735467ffffffffffffffff68010000000000000000820481165f81815260726020526040812054838516949293700100000000000000000000000000000000909304909216919082905b868110156125f0575f8c8c838181106122475761224761695d565b90506080020180360381019061225d919061698a565b606081015190915067ffffffffffffffff16156123ca578461227e816169f9565b9550505f815f0151826020015183606001516040516020016122d893929190928352602083019190915260c01b7fffffffffffffffff00000000000000000000000000000000000000000000000016604082015260480190565b604080517fffffffffffffffffffffffffffffffffffffffffffffffffffffffffffffffe0818403018152918152815160209283012067ffffffffffffffff89165f90815260719093529120549091508114612360576040517fce3d755e00000000000000000000000000000000000000000000000000000000815260040160405180910390fd5b67ffffffffffffffff8087165f9081526071602052604080822091909155606084015190840151908216911610156123c4576040517f7f7ab87200000000000000000000000000000000000000000000000000000000815260040160405180910390fd5b506124c5565b60208101511580159061248e575060208101516040517f257b363200000000000000000000000000000000000000000000000000000000815260048101919091527f000000000000000000000000000000000000000000000000000000000000000073ffffffffffffffffffffffffffffffffffffffff169063257b3632906024016020604051808303815f875af1158015612468573d5f803e3d5ffd5b505050506040513d601f19601f8201168201806040525081019061248c9190616860565b155b156124c5576040517f73bd668d00000000000000000000000000000000000000000000000000000000815260040160405180910390fd5b8667ffffffffffffffff16816040015167ffffffffffffffff1610806124f8575042816040015167ffffffffffffffff16115b1561252f576040517fea82791600000000000000000000000000000000000000000000000000000000815260040160405180910390fd5b83815f0151826020015183604001518e6040516020016125bd9594939291909485526020850193909352604084019190915260c01b7fffffffffffffffff000000000000000000000000000000000000000000000000166060808401919091521b7fffffffffffffffffffffffffffffffffffffffff000000000000000000000000166068820152607c0190565b604051602081830303815290604052805190602001209350806040015196505080806125e890616a1f565b91505061222c565b506040517fc7a823e000000000000000000000000000000000000000000000000000000000815273ffffffffffffffffffffffffffffffffffffffff7f0000000000000000000000000000000000000000000000000000000000000000169063c7a823e0906126679085908c908c90600401616a9d565b5f6040518083038186803b15801561267d575f80fd5b505afa15801561268f573d5f803e3d5ffd5b50505050858461269f9190616935565b60735490945067ffffffffffffffff780100000000000000000000000000000000000000000000000090910481169084161115612708576040517fc630a00d00000000000000000000000000000000000000000000000000000000815260040160405180910390fd5b5f6127138285616abf565b6127279067ffffffffffffffff1688616ae0565b604080516060810182528581524267ffffffffffffffff908116602080840191825260738054680100000000000000009081900485168688019081528d86165f8181526072909552979093209551865592516001909501805492519585167fffffffffffffffffffffffffffffffff000000000000000000000000000000009384161795851684029590951790945583548c841691161793029290921790559091508281169085161461281c57607380547fffffffffffffffff0000000000000000ffffffffffffffffffffffffffffffff1670010000000000000000000000000000000067ffffffffffffffff8716021790555b61286e33308360705461282f9190616af3565b73ffffffffffffffffffffffffffffffffffffffff7f000000000000000000000000000000000000000000000000000000000000000016929190615542565b612876615624565b7f000000000000000000000000000000000000000000000000000000000000000073ffffffffffffffffffffffffffffffffffffffff166379e2cf976040518163ffffffff1660e01b81526004015f604051808303815f87803b1580156128db575f80fd5b505af11580156128ed573d5f803e3d5ffd5b505060405167ffffffffffffffff881692507f303446e6a8cb73c83dff421c0b1d5e5ce0719dab1bff13660fc254e58cc17fce91505f90a2505050505050505050505050565b60745468010000000000000000900473ffffffffffffffffffffffffffffffffffffffff1633146129da57606f5460ff161561299b576040517f2f0047fc00000000000000000000000000000000000000000000000000000000815260040160405180910390fd5b6129a481611ef4565b6129da576040517f0ce9e4a200000000000000000000000000000000000000000000000000000000815260040160405180910390fd5b6129e3816156cb565b50565b607a5473ffffffffffffffffffffffffffffffffffffffff163314612a37576040517f4755657900000000000000000000000000000000000000000000000000000000815260040160405180910390fd5b62093a8067ffffffffffffffff82161115612a7e576040517ff5e37f2f00000000000000000000000000000000000000000000000000000000815260040160405180910390fd5b606f5460ff16612ae957607b5467ffffffffffffffff74010000000000000000000000000000000000000000909104811690821610612ae9576040517ff5e37f2f00000000000000000000000000000000000000000000000000000000815260040160405180910390fd5b607b80547fffffffff0000000000000000ffffffffffffffffffffffffffffffffffffffff167401000000000000000000000000000000000000000067ffffffffffffffff8416908102919091179091556040519081527fa7eb6cb8a613eb4e8bddc1ac3d61ec6cf10898760f0b187bcca794c6ca6fa40b90602001611941565b60768054611207906168b7565b607a5473ffffffffffffffffffffffffffffffffffffffff163314612bc8576040517f4755657900000000000000000000000000000000000000000000000000000000815260040160405180910390fd5b607b547c0100000000000000000000000000000000000000000000000000000000900460ff16612c24576040517ff6ba91a100000000000000000000000000000000000000000000000000000000815260040160405180910390fd5b607b80547fffffff00ffffffffffffffffffffffffffffffffffffffffffffffffffffffff1690556040517f854dd6ce5a1445c4c54388b21cffd11cf5bba1b9e763aec48ce3da75d617412f905f90a1565b5f6070546064612c869190616af3565b905090565b606f5460ff1615612cc8576040517f2f0047fc00000000000000000000000000000000000000000000000000000000815260040160405180910390fd5b60795467ffffffffffffffff8581165f908152607260205260409020600101544292612d1492780100000000000000000000000000000000000000000000000090910481169116616935565b67ffffffffffffffff161115612d56576040517f8a0704d300000000000000000000000000000000000000000000000000000000815260040160405180910390fd5b6103e8612d638686616abf565b67ffffffffffffffff161115612da5576040517fb59f753a00000000000000000000000000000000000000000000000000000000815260040160405180910390fd5b612db3868686868686614d45565b60705415612dc457612dc4846158d8565b607954700100000000000000000000000000000000900467ffffffffffffffff165f03612f0557607480547fffffffffffffffffffffffffffffffffffffffffffffffff00000000000000001667ffffffffffffffff8681169182179092555f9081526075602052604090208390556079541615612e6557607980547fffffffffffffffffffffffffffffffff000000000000000000000000000000001690555b6040517f33d6247d000000000000000000000000000000000000000000000000000000008152600481018490527f000000000000000000000000000000000000000000000000000000000000000073ffffffffffffffffffffffffffffffffffffffff16906333d6247d906024015f604051808303815f87803b158015612eea575f80fd5b505af1158015612efc573d5f803e3d5ffd5b50505050612fd3565b612f0d615624565b6079805467ffffffffffffffff16905f612f26836169f9565b825467ffffffffffffffff9182166101009390930a92830292820219169190911790915560408051608081018252428316815287831660208083019182528284018981526060840189815260795487165f908152607890935294909120925183549251861668010000000000000000027fffffffffffffffffffffffffffffffff000000000000000000000000000000009093169516949094171781559151600183015551600290910155505b604051828152339067ffffffffffffffff8616907f9c72852172521097ba7e1482e6b44b351323df0155f97f4ea18fcec28e1f596690602001611cdc565b607a5473ffffffffffffffffffffffffffffffffffffffff163314613062576040517f4755657900000000000000000000000000000000000000000000000000000000815260040160405180910390fd5b606f80547fff0000000000000000000000000000000000000000ffffffffffffffffffffff166b01000000000000000000000073ffffffffffffffffffffffffffffffffffffffff8416908102919091179091556040519081527ff54144f9611984021529f814a1cb6a41e22c58351510a0d9f7e822618abb9cc090602001611941565b6130ee614cc4565b6130f75f615a98565b565b60335473ffffffffffffffffffffffffffffffffffffffff16331461325e575f6131216139be565b90508067ffffffffffffffff168267ffffffffffffffff1611613170576040517f812a372d00000000000000000000000000000000000000000000000000000000815260040160405180910390fd5b60735467ffffffffffffffff68010000000000000000909104811690831611806131b5575067ffffffffffffffff8083165f9081526072602052604090206001015416155b156131ec576040517f98c5c01400000000000000000000000000000000000000000000000000000000815260040160405180910390fd5b67ffffffffffffffff8083165f90815260726020526040902060010154429161321a9162093a809116616935565b67ffffffffffffffff16111561325c576040517fd257555a00000000000000000000000000000000000000000000000000000000815260040160405180910390fd5b505b6129e3615b0e565b607b5473ffffffffffffffffffffffffffffffffffffffff1633146132b7576040517fd1ec4b2300000000000000000000000000000000000000000000000000000000815260040160405180910390fd5b607b54607a80547fffffffffffffffffffffffff00000000000000000000000000000000000000001673ffffffffffffffffffffffffffffffffffffffff90921691821790556040519081527f056dc487bbf0795d0bbb1b4f0af523a855503cff740bfb4d5475f7a90c091e8e9060200160405180910390a1565b61333a614cc4565b607480547fffffffffffffffffffffffffffffffffffffffffffffffff00000000000000001667ffffffffffffffff92909216919091179055565b6040517f70a082310000000000000000000000000000000000000000000000000000000081523060048201525f90819073ffffffffffffffffffffffffffffffffffffffff7f000000000000000000000000000000000000000000000000000000000000000016906370a0823190602401602060405180830381865afa158015613401573d5f803e3d5ffd5b505050506040513d601f19601f820116820180604052508101906134259190616860565b90505f6134306139be565b60735467ffffffffffffffff6801000000000000000082048116916134889170010000000000000000000000000000000082048116917801000000000000000000000000000000000000000000000000900416616abf565b6134929190616935565b61349c9190616abf565b67ffffffffffffffff169050805f036134b7575f9250505090565b6134c18183616b0a565b9250505090565b606f5460ff1615613505576040517f2f0047fc00000000000000000000000000000000000000000000000000000000815260040160405180910390fd5b61351487878787878787615113565b67ffffffffffffffff84165f908152607560209081526040918290205482519081529081018490527f1f44c21118c4603cfb4e1b621dbcfa2b73efcececee2b99b620b2953d33a7010910160405180910390a161356f615b0e565b50505050505050565b613580614cc4565b6073805467ffffffffffffffff90921668010000000000000000027fffffffffffffffffffffffffffffffff0000000000000000ffffffffffffffff909216919091179055565b607a5473ffffffffffffffffffffffffffffffffffffffff163314613618576040517f4755657900000000000000000000000000000000000000000000000000000000815260040160405180910390fd5b62093a8067ffffffffffffffff8216111561365f576040517fcc96507000000000000000000000000000000000000000000000000000000000815260040160405180910390fd5b606f5460ff166136c65760795467ffffffffffffffff7001000000000000000000000000000000009091048116908216106136c6576040517f48a05a9000000000000000000000000000000000000000000000000000000000815260040160405180910390fd5b607980547fffffffffffffffff0000000000000000ffffffffffffffffffffffffffffffff1670010000000000000000000000000000000067ffffffffffffffff8416908102919091179091556040519081527fc4121f4e22c69632ebb7cf1f462be0511dc034f999b52013eddfb24aab765c7590602001611941565b607a5473ffffffffffffffffffffffffffffffffffffffff163314613794576040517f4755657900000000000000000000000000000000000000000000000000000000815260040160405180910390fd5b620151808167ffffffffffffffff1611156137db576040517fe067dfe800000000000000000000000000000000000000000000000000000000815260040160405180910390fd5b606f80547fffffffffffffffffffffffffffffffffffffffffffffff0000000000000000ff1661010067ffffffffffffffff8416908102919091179091556040519081527f1b023231a1ab6b5d93992f168fb44498e1a7e64cef58daff6f1c216de6a68c2890602001611941565b607a5473ffffffffffffffffffffffffffffffffffffffff16331461389a576040517f4755657900000000000000000000000000000000000000000000000000000000815260040160405180910390fd5b607b80547fffffffffffffffffffffffff00000000000000000000000000000000000000001673ffffffffffffffffffffffffffffffffffffffff83169081179091556040519081527fa5b56b7906fd0a20e3f35120dd8343db1e12e037a6c90111c7e42885e82a1ce690602001611941565b613915614cc4565b6129e3816158d8565b5f67ffffffff0000000167ffffffffffffffff8316108015613955575067ffffffff00000001604083901c67ffffffffffffffff16105b8015613976575067ffffffff00000001608083901c67ffffffffffffffff16105b801561398d575067ffffffff0000000160c083901c105b1561399a57506001919050565b505f919050565b919050565b6139ae614cc4565b60776139ba8282616b62565b5050565b6079545f9067ffffffffffffffff1615613a00575060795467ffffffffffffffff9081165f908152607860205260409020546801000000000000000090041690565b5060745467ffffffffffffffff1690565b607a5473ffffffffffffffffffffffffffffffffffffffff163314613a62576040517f4755657900000000000000000000000000000000000000000000000000000000815260040160405180910390fd5b6076613a6e8282616b62565b507f6b8f723a4c7a5335cafae8a598a0aa0301be1387c037dccc085b62add6448b20816040516119419190616192565b5f54610100900460ff1615808015613abc57505f54600160ff909116105b80613ad55750303b158015613ad557505f5460ff166001145b613b61576040517f08c379a000000000000000000000000000000000000000000000000000000000815260206004820152602e60248201527f496e697469616c697a61626c653a20636f6e747261637420697320616c72656160448201527f647920696e697469616c697a65640000000000000000000000000000000000006064820152608401610e09565b5f80547fffffffffffffffffffffffffffffffffffffffffffffffffffffffffffffff001660011790558015613bbd575f80547fffffffffffffffffffffffffffffffffffffffffffffffffffffffffffff00ff166101001790555b613bca602088018861660d565b607a80547fffffffffffffffffffffffff00000000000000000000000000000000000000001673ffffffffffffffffffffffffffffffffffffffff92909216919091179055613c1f604088016020890161660d565b606f805473ffffffffffffffffffffffffffffffffffffffff929092166b010000000000000000000000027fff0000000000000000000000000000000000000000ffffffffffffffffffffff909216919091179055613c84608088016060890161660d565b6074805473ffffffffffffffffffffffffffffffffffffffff9290921668010000000000000000027fffffffff0000000000000000000000000000000000000000ffffffffffffffff9092169190911790555f805260756020527ff9e3fbf150b7a0077118526f473c53cb4734f166167e2c6213e3567dd390b4ad8690556076613d0e8682616b62565b506077613d1b8582616b62565b5062093a80613d306060890160408a016163a2565b67ffffffffffffffff161115613d72576040517fcc96507000000000000000000000000000000000000000000000000000000000815260040160405180910390fd5b613d8260608801604089016163a2565b6079805467ffffffffffffffff92909216700100000000000000000000000000000000027fffffffffffffffff0000000000000000ffffffffffffffffffffffffffffffff90921691909117905562093a80613de460a0890160808a016163a2565b67ffffffffffffffff161115613e26576040517f1d06e87900000000000000000000000000000000000000000000000000000000815260040160405180910390fd5b613e3660a08801608089016163a2565b6079805477ffffffffffffffffffffffffffffffffffffffffffffffff16780100000000000000000000000000000000000000000000000067ffffffffffffffff93909316929092029190911790555f607055606f80547fffffffffffffffffffffffffffffffffffffffffff00000000000000000000ff166a03ea000000000000070800179055607b80547fffffff000000000000000000ffffffffffffffffffffffffffffffffffffffff167c0100000000000697800000000000000000000000000000000000000000179055613f0d615b91565b7fed7be53c9f1a96a481223b15568a5b1a475e01a74b347d6ca187c8bf0c078cd65f7f00000000000000000000000000000000000000000000000000000000000000008585604051613f629493929190616c7a565b60405180910390a1801561356f575f80547fffffffffffffffffffffffffffffffffffffffffffffffffffffffffffff00ff169055604051600181527f7f26b83ff96e1f2b6a682f133852f6798a09c465da95921460cefb38474024989060200160405180910390a150505050505050565b607b547c0100000000000000000000000000000000000000000000000000000000900460ff1615614031576040517f24eff8c300000000000000000000000000000000000000000000000000000000815260040160405180910390fd5b606f5460ff161561406e576040517f2f0047fc00000000000000000000000000000000000000000000000000000000815260040160405180910390fd5b805f8190036140a9576040517fcb591a5f00000000000000000000000000000000000000000000000000000000815260040160405180910390fd5b6103e88111156140e5576040517fb59f753a00000000000000000000000000000000000000000000000000000000815260040160405180910390fd5b60735467ffffffffffffffff78010000000000000000000000000000000000000000000000008204811691614130918491700100000000000000000000000000000000900416616cb1565b1115614168576040517fc630a00d00000000000000000000000000000000000000000000000000000000815260040160405180910390fd5b60735467ffffffffffffffff68010000000000000000820481165f8181526072602052604081205491937001000000000000000000000000000000009004909216915b8481101561440d575f8787838181106141c6576141c661695d565b90506020028101906141d89190616cc4565b6141e190616cf6565b9050836141ed816169f9565b825180516020918201208185015160408087015190519499509194505f9361424e9386939101928352602083019190915260c01b7fffffffffffffffff00000000000000000000000000000000000000000000000016604082015260480190565b604080517fffffffffffffffffffffffffffffffffffffffffffffffffffffffffffffffe0818403018152918152815160209283012067ffffffffffffffff89165f908152607190935291205490915081146142d6576040517fce3d755e00000000000000000000000000000000000000000000000000000000815260040160405180910390fd5b67ffffffffffffffff86165f908152607160205260408120556142fa600189616ae0565b84036143695742607b60149054906101000a900467ffffffffffffffff1684604001516143279190616935565b67ffffffffffffffff161115614369576040517fc44a082100000000000000000000000000000000000000000000000000000000815260040160405180910390fd5b6020838101516040805192830188905282018490526060808301919091524260c01b7fffffffffffffffff00000000000000000000000000000000000000000000000016608083015233901b7fffffffffffffffffffffffffffffffffffffffff000000000000000000000000166088820152609c01604051602081830303815290604052805190602001209450505050808061440590616a1f565b9150506141ab565b506144188484616935565b6073805467ffffffffffffffff4281167fffffffffffffffffffffffffffffffffffffffffffffffff00000000000000009092168217808455604080516060810182528781526020808201958652680100000000000000009384900485168284019081528589165f818152607290935284832093518455965160019390930180549151871686027fffffffffffffffffffffffffffffffff0000000000000000000000000000000090921693871693909317179091558554938916700100000000000000000000000000000000027fffffffffffffffff0000000000000000ffffffffffffffffffffffffffffffff938602939093167fffffffffffffffff00000000000000000000000000000000ffffffffffffffff90941693909317919091179093559151929550917f648a61dd2438f072f5a1960939abd30f37aea80d2e94c9792ad142d3e0a490a49190a2505050505050565b607a5473ffffffffffffffffffffffffffffffffffffffff1633146145c0576040517f4755657900000000000000000000000000000000000000000000000000000000815260040160405180910390fd5b7f000000000000000000000000000000000000000000000000000000000000000073ffffffffffffffffffffffffffffffffffffffff1663dbc169766040518163ffffffff1660e01b81526004015f604051808303815f87803b158015614625575f80fd5b505af1158015614637573d5f803e3d5ffd5b505050506130f7615c30565b61464b614cc4565b6040805160608101825293845267ffffffffffffffff92831660208086019182529284168583019081529584165f908152607290935291209251835551600190920180549351821668010000000000000000027fffffffffffffffffffffffffffffffff000000000000000000000000000000009094169290911691909117919091179055565b607b547c0100000000000000000000000000000000000000000000000000000000900460ff161561472f576040517f24eff8c300000000000000000000000000000000000000000000000000000000815260040160405180910390fd5b606f5460ff161561476c576040517f2f0047fc00000000000000000000000000000000000000000000000000000000815260040160405180910390fd5b5f614775612c76565b9050818111156147b1576040517f4732fdb500000000000000000000000000000000000000000000000000000000815260040160405180910390fd5b6113888311156147ed576040517fa29a6c7c00000000000000000000000000000000000000000000000000000000815260040160405180910390fd5b61482f73ffffffffffffffffffffffffffffffffffffffff7f000000000000000000000000000000000000000000000000000000000000000016333084615542565b5f7f000000000000000000000000000000000000000000000000000000000000000073ffffffffffffffffffffffffffffffffffffffff16633ed691ef6040518163ffffffff1660e01b8152600401602060405180830381865afa158015614899573d5f803e3d5ffd5b505050506040513d601f19601f820116820180604052508101906148bd9190616860565b60738054919250780100000000000000000000000000000000000000000000000090910467ffffffffffffffff169060186148f7836169f9565b91906101000a81548167ffffffffffffffff021916908367ffffffffffffffff16021790555050848460405161492e929190616d6f565b60408051918290038220602083015281018290527fffffffffffffffff0000000000000000000000000000000000000000000000004260c01b166060820152606801604080518083037fffffffffffffffffffffffffffffffffffffffffffffffffffffffffffffffe001815291815281516020928301206073547801000000000000000000000000000000000000000000000000900467ffffffffffffffff165f9081526071909352912055323303614a5c576073546040805183815233602082015260609181018290525f91810191909152780100000000000000000000000000000000000000000000000090910467ffffffffffffffff16907ff94bb37db835f1ab585ee00041849a09b12cd081d77fa15ca070757619cbc9319060800160405180910390a2614abb565b607360189054906101000a900467ffffffffffffffff1667ffffffffffffffff167ff94bb37db835f1ab585ee00041849a09b12cd081d77fa15ca070757619cbc93182338888604051614ab29493929190616d7e565b60405180910390a25b5050505050565b607a5473ffffffffffffffffffffffffffffffffffffffff163314614b13576040517f4755657900000000000000000000000000000000000000000000000000000000815260040160405180910390fd5b607480547fffffffff0000000000000000000000000000000000000000ffffffffffffffff166801000000000000000073ffffffffffffffffffffffffffffffffffffffff8416908102919091179091556040519081527f61f8fec29495a3078e9271456f05fb0707fd4e41f7661865f80fc437d06681ca90602001611941565b614b9c614cc4565b73ffffffffffffffffffffffffffffffffffffffff8116614c3f576040517f08c379a000000000000000000000000000000000000000000000000000000000815260206004820152602660248201527f4f776e61626c653a206e6577206f776e657220697320746865207a65726f206160448201527f64647265737300000000000000000000000000000000000000000000000000006064820152608401610e09565b6129e381615a98565b607a5473ffffffffffffffffffffffffffffffffffffffff163314614c99576040517f4755657900000000000000000000000000000000000000000000000000000000815260040160405180910390fd5b61ffff16607055565b614caa614cc4565b67ffffffffffffffff165f90815260756020526040902055565b60335473ffffffffffffffffffffffffffffffffffffffff1633146130f7576040517f08c379a000000000000000000000000000000000000000000000000000000000815260206004820181905260248201527f4f776e61626c653a2063616c6c6572206973206e6f7420746865206f776e65726044820152606401610e09565b5f80614d4f6139be565b905067ffffffffffffffff881615614e1e5760795467ffffffffffffffff9081169089161115614dab576040517fbb14c20500000000000000000000000000000000000000000000000000000000815260040160405180910390fd5b67ffffffffffffffff8089165f908152607860205260409020600281015481549094509091898116680100000000000000009092041614614e18576040517f2bd2e3e700000000000000000000000000000000000000000000000000000000815260040160405180910390fd5b50614ebe565b67ffffffffffffffff87165f90815260756020526040902054915081614e70576040517f4997b98600000000000000000000000000000000000000000000000000000000815260040160405180910390fd5b8067ffffffffffffffff168767ffffffffffffffff161115614ebe576040517f1e56e9e200000000000000000000000000000000000000000000000000000000815260040160405180910390fd5b8067ffffffffffffffff168667ffffffffffffffff1611614f0b576040517fb9b18f5700000000000000000000000000000000000000000000000000000000815260040160405180910390fd5b5f614f19888888868961194c565b90505f7f30644e72e131a029b85045b68181585d2833e84879b9709143e1f593f0000001600283604051614f4d9190616845565b602060405180830381855afa158015614f68573d5f803e3d5ffd5b5050506040513d601f19601f82011682018060405250810190614f8b9190616860565b614f9591906168a4565b6040805160208101825282815290517f9121da8a00000000000000000000000000000000000000000000000000000000815291925073ffffffffffffffffffffffffffffffffffffffff7f00000000000000000000000000000000000000000000000000000000000000001691639121da8a9161501791899190600401616db3565b602060405180830381865afa158015615032573d5f803e3d5ffd5b505050506040513d601f19601f820116820180604052508101906150569190616ded565b61508c576040517f09bde33900000000000000000000000000000000000000000000000000000000815260040160405180910390fd5b6070545f0361509e575050505061510b565b615106336150ac858b616abf565b67ffffffffffffffff166150be613375565b6150c89190616af3565b73ffffffffffffffffffffffffffffffffffffffff7f0000000000000000000000000000000000000000000000000000000000000000169190615cbe565b505050505b505050505050565b5f67ffffffffffffffff8816156151df5760795467ffffffffffffffff908116908916111561516e576040517fbb14c20500000000000000000000000000000000000000000000000000000000815260040160405180910390fd5b5067ffffffffffffffff8088165f9081526078602052604090206002810154815490928881166801000000000000000090920416146151d9576040517f2bd2e3e700000000000000000000000000000000000000000000000000000000815260040160405180910390fd5b5061527a565b5067ffffffffffffffff85165f9081526075602052604090205480615230576040517f4997b98600000000000000000000000000000000000000000000000000000000815260040160405180910390fd5b60745467ffffffffffffffff908116908716111561527a576040517f1e56e9e200000000000000000000000000000000000000000000000000000000815260040160405180910390fd5b60795467ffffffffffffffff90811690881611806152ac57508767ffffffffffffffff168767ffffffffffffffff1611155b806152d3575060795467ffffffffffffffff68010000000000000000909104811690881611155b1561530a576040517fbfa7079f00000000000000000000000000000000000000000000000000000000815260040160405180910390fd5b67ffffffffffffffff8781165f9081526078602052604090205468010000000000000000900481169086161461536c576040517f32a2a77f00000000000000000000000000000000000000000000000000000000815260040160405180910390fd5b5f61537a878787858861194c565b90505f7f30644e72e131a029b85045b68181585d2833e84879b9709143e1f593f00000016002836040516153ae9190616845565b602060405180830381855afa1580156153c9573d5f803e3d5ffd5b5050506040513d601f19601f820116820180604052508101906153ec9190616860565b6153f691906168a4565b6040805160208101825282815290517f9121da8a00000000000000000000000000000000000000000000000000000000815291925073ffffffffffffffffffffffffffffffffffffffff7f00000000000000000000000000000000000000000000000000000000000000001691639121da8a9161547891889190600401616db3565b602060405180830381865afa158015615493573d5f803e3d5ffd5b505050506040513d601f19601f820116820180604052508101906154b79190616ded565b6154ed576040517f09bde33900000000000000000000000000000000000000000000000000000000815260040160405180910390fd5b67ffffffffffffffff89165f90815260786020526040902060020154859003615106576040517fa47276bd00000000000000000000000000000000000000000000000000000000815260040160405180910390fd5b60405173ffffffffffffffffffffffffffffffffffffffff8085166024830152831660448201526064810182905261561e9085907f23b872dd00000000000000000000000000000000000000000000000000000000906084015b604080517fffffffffffffffffffffffffffffffffffffffffffffffffffffffffffffffe08184030181529190526020810180517bffffffffffffffffffffffffffffffffffffffffffffffffffffffff167fffffffff0000000000000000000000000000000000000000000000000000000090931692909217909152615d19565b50505050565b60795467ffffffffffffffff6801000000000000000082048116911611156130f7576079545f9061566c9068010000000000000000900467ffffffffffffffff166001616935565b905061567781611ef4565b156129e3576079545f9060029061569990849067ffffffffffffffff16616abf565b6156a39190616e0c565b6156ad9083616935565b90506156b881611ef4565b156156c6576139ba816156cb565b6139ba825b60795467ffffffffffffffff680100000000000000009091048116908216111580615705575060795467ffffffffffffffff908116908216115b1561573c576040517fd086b70b00000000000000000000000000000000000000000000000000000000815260040160405180910390fd5b67ffffffffffffffff8181165f81815260786020908152604080832080546074805468010000000000000000928390049098167fffffffffffffffffffffffffffffffffffffffffffffffff000000000000000090981688179055600282015487865260759094529382902092909255607980547fffffffffffffffffffffffffffffffff0000000000000000ffffffffffffffff169390940292909217909255600182015490517f33d6247d00000000000000000000000000000000000000000000000000000000815260048101919091529091907f000000000000000000000000000000000000000000000000000000000000000073ffffffffffffffffffffffffffffffffffffffff16906333d6247d906024015f604051808303815f87803b15801561586a575f80fd5b505af115801561587c573d5f803e3d5ffd5b505050508267ffffffffffffffff168167ffffffffffffffff167f328d3c6c0fd6f1be0515e422f2d87e59f25922cbc2233568515a0c4bc3f8510e84600201546040516158cb91815260200190565b60405180910390a3505050565b5f6158e16139be565b9050815f806158f08484616abf565b606f5467ffffffffffffffff91821692505f916159139161010090041642616ae0565b90505b8467ffffffffffffffff168467ffffffffffffffff161461599d5767ffffffffffffffff8085165f908152607260205260409020600181015490911682101561597b57600181015468010000000000000000900467ffffffffffffffff169450615997565b6159858686616abf565b67ffffffffffffffff1693505061599d565b50615916565b5f6159a88484616ae0565b9050838110156159ff57808403600c81116159c357806159c6565b600c5b9050806103e80a81606f60099054906101000a900461ffff1661ffff160a60705402816159f5576159f5616877565b0460705550615a6e565b838103600c8111615a105780615a13565b600c5b90505f816103e80a82606f60099054906101000a900461ffff1661ffff160a670de0b6b3a76400000281615a4957615a49616877565b04905080607054670de0b6b3a76400000281615a6757615a67616877565b0460705550505b683635c9adc5dea000006070541115615a9357683635c9adc5dea0000060705561356f565b61356f565b6033805473ffffffffffffffffffffffffffffffffffffffff8381167fffffffffffffffffffffffff0000000000000000000000000000000000000000831681179093556040519116919082907f8be0079c531659141344cd1fd0a4f28419497f9722a3daafe3b4186f6b6457e0905f90a35050565b7f000000000000000000000000000000000000000000000000000000000000000073ffffffffffffffffffffffffffffffffffffffff16632072f6c56040518163ffffffff1660e01b81526004015f604051808303815f87803b158015615b73575f80fd5b505af1158015615b85573d5f803e3d5ffd5b505050506130f7615e24565b5f54610100900460ff16615c27576040517f08c379a000000000000000000000000000000000000000000000000000000000815260206004820152602b60248201527f496e697469616c697a61626c653a20636f6e7472616374206973206e6f74206960448201527f6e697469616c697a696e670000000000000000000000000000000000000000006064820152608401610e09565b6130f733615a98565b606f5460ff16615c6c576040517f5386698100000000000000000000000000000000000000000000000000000000815260040160405180910390fd5b606f80547fffffffffffffffffffffffffffffffffffffffffffffffffffffffffffffff001690556040517f1e5e34eea33501aecf2ebec9fe0e884a40804275ea7fe10b2ba084c8374308b3905f90a1565b60405173ffffffffffffffffffffffffffffffffffffffff8316602482015260448101829052615d149084907fa9059cbb000000000000000000000000000000000000000000000000000000009060640161559c565b505050565b5f615d7a826040518060400160405280602081526020017f5361666545524332303a206c6f772d6c6576656c2063616c6c206661696c65648152508573ffffffffffffffffffffffffffffffffffffffff16615eb69092919063ffffffff16565b805190915015615d145780806020019051810190615d989190616ded565b615d14576040517f08c379a000000000000000000000000000000000000000000000000000000000815260206004820152602a60248201527f5361666545524332303a204552433230206f7065726174696f6e20646964206e60448201527f6f742073756363656564000000000000000000000000000000000000000000006064820152608401610e09565b606f5460ff1615615e61576040517f2f0047fc00000000000000000000000000000000000000000000000000000000815260040160405180910390fd5b606f80547fffffffffffffffffffffffffffffffffffffffffffffffffffffffffffffff001660011790556040517f2261efe5aef6fedc1fd1550b25facc9181745623049c7901287030b9ad1a5497905f90a1565b6060615ec484845f85615ecc565b949350505050565b606082471015615f5e576040517f08c379a000000000000000000000000000000000000000000000000000000000815260206004820152602660248201527f416464726573733a20696e73756666696369656e742062616c616e636520666f60448201527f722063616c6c00000000000000000000000000000000000000000000000000006064820152608401610e09565b5f808673ffffffffffffffffffffffffffffffffffffffff168587604051615f869190616845565b5f6040518083038185875af1925050503d805f8114615fc0576040519150601f19603f3d011682016040523d82523d5f602084013e615fc5565b606091505b5091509150615fd687838387615fe1565b979650505050505050565b606083156160765782515f0361606f5773ffffffffffffffffffffffffffffffffffffffff85163b61606f576040517f08c379a000000000000000000000000000000000000000000000000000000000815260206004820152601d60248201527f416464726573733a2063616c6c20746f206e6f6e2d636f6e74726163740000006044820152606401610e09565b5081615ec4565b615ec4838381511561608b5781518083602001fd5b806040517f08c379a0000000000000000000000000000000000000000000000000000000008152600401610e099190616192565b803567ffffffffffffffff811681146139a1575f80fd5b5f805f805f60a086880312156160ea575f80fd5b6160f3866160bf565b9450616101602087016160bf565b935061610f604087016160bf565b94979396509394606081013594506080013592915050565b5f5b83811015616141578181015183820152602001616129565b50505f910152565b5f8151808452616160816020860160208601616127565b601f017fffffffffffffffffffffffffffffffffffffffffffffffffffffffffffffffe0169290920160200192915050565b602081525f6161a46020830184616149565b9392505050565b80604081018310156161bb575f80fd5b92915050565b5f805f805f805f806101a0898b0312156161d9575f80fd5b6161e2896160bf565b97506161f060208a016160bf565b96506161fe60408a016160bf565b9550606089013594506080890135935061621b8a60a08b016161ab565b925061016089018a81111561622e575f80fd5b60e08a01925061623e8b826161ab565b9150509295985092959890939650565b5f6020828403121561625e575f80fd5b813561ffff811681146161a4575f80fd5b5f805f805f60a08688031215616283575f80fd5b61628c866160bf565b945061629a602087016160bf565b94979496505050506040830135926060810135926080909101359150565b8061030081018310156161bb575f80fd5b5f805f805f806103a087890312156162df575f80fd5b6162e8876160bf565b95506162f6602088016160bf565b9450616304604088016160bf565b935060608701359250608087013591506163218860a089016162b8565b90509295509295509295565b5f805f805f805f6103c0888a031215616344575f80fd5b61634d886160bf565b965061635b602089016160bf565b9550616369604089016160bf565b9450616377606089016160bf565b93506080880135925060a088013591506163948960c08a016162b8565b905092959891949750929550565b5f602082840312156163b2575f80fd5b6161a4826160bf565b803573ffffffffffffffffffffffffffffffffffffffff811681146139a1575f80fd5b5f8083601f8401126163ee575f80fd5b50813567ffffffffffffffff811115616405575f80fd5b60208301915083602082850101111561641c575f80fd5b9250929050565b5f805f805f60608688031215616437575f80fd5b853567ffffffffffffffff8082111561644e575f80fd5b818801915088601f830112616461575f80fd5b81358181111561646f575f80fd5b8960208260071b8501011115616483575f80fd5b60208301975080965050616499602089016163bb565b945060408801359150808211156164ae575f80fd5b506164bb888289016163de565b969995985093965092949392505050565b7f4e487b71000000000000000000000000000000000000000000000000000000005f52604160045260245ffd5b5f82601f830112616508575f80fd5b813567ffffffffffffffff80821115616523576165236164cc565b604051601f83017fffffffffffffffffffffffffffffffffffffffffffffffffffffffffffffffe0908116603f01168101908282118183101715616569576165696164cc565b81604052838152866020858801011115616581575f80fd5b836020870160208301375f602085830101528094505050505092915050565b5f805f805f60a086880312156165b4575f80fd5b85359450602086013567ffffffffffffffff8111156165d1575f80fd5b6165dd888289016164f9565b945050604086013592506165f3606087016160bf565b9150616601608087016163bb565b90509295509295909350565b5f6020828403121561661d575f80fd5b6161a4826163bb565b5f60208284031215616636575f80fd5b5035919050565b5f6020828403121561664d575f80fd5b813567ffffffffffffffff811115616663575f80fd5b615ec4848285016164f9565b5f805f805f80868803610120811215616686575f80fd5b60a0811215616693575f80fd5b5086955060a0870135945060c087013567ffffffffffffffff808211156166b8575f80fd5b6166c48a838b016164f9565b955060e08901359150808211156166d9575f80fd5b6166e58a838b016164f9565b94506101008901359150808211156166fb575f80fd5b5061670889828a016163de565b979a9699509497509295939492505050565b5f806020838503121561672b575f80fd5b823567ffffffffffffffff80821115616742575f80fd5b818501915085601f830112616755575f80fd5b813581811115616763575f80fd5b8660208260051b8501011115616777575f80fd5b60209290920196919550909350505050565b5f805f806080858703121561679c575f80fd5b6167a5856160bf565b9350602085013592506167ba604086016160bf565b91506167c8606086016160bf565b905092959194509250565b5f805f604084860312156167e5575f80fd5b833567ffffffffffffffff8111156167fb575f80fd5b616807868287016163de565b909790965060209590950135949350505050565b5f806040838503121561682c575f80fd5b8235915061683c602084016160bf565b90509250929050565b5f8251616856818460208701616127565b9190910192915050565b5f60208284031215616870575f80fd5b5051919050565b7f4e487b71000000000000000000000000000000000000000000000000000000005f52601260045260245ffd5b5f826168b2576168b2616877565b500690565b600181811c908216806168cb57607f821691505b602082108103616902577f4e487b71000000000000000000000000000000000000000000000000000000005f52602260045260245ffd5b50919050565b7f4e487b71000000000000000000000000000000000000000000000000000000005f52601160045260245ffd5b67ffffffffffffffff81811683821601908082111561695657616956616908565b5092915050565b7f4e487b71000000000000000000000000000000000000000000000000000000005f52603260045260245ffd5b5f6080828403121561699a575f80fd5b6040516080810181811067ffffffffffffffff821117156169bd576169bd6164cc565b806040525082358152602083013560208201526169dc604084016160bf565b60408201526169ed606084016160bf565b60608201529392505050565b5f67ffffffffffffffff808316818103616a1557616a15616908565b6001019392505050565b5f7fffffffffffffffffffffffffffffffffffffffffffffffffffffffffffffffff8203616a4f57616a4f616908565b5060010190565b81835281816020850137505f602082840101525f60207fffffffffffffffffffffffffffffffffffffffffffffffffffffffffffffffe0601f840116840101905092915050565b838152604060208201525f616ab6604083018486616a56565b95945050505050565b67ffffffffffffffff82811682821603908082111561695657616956616908565b818103818111156161bb576161bb616908565b80820281158282048414176161bb576161bb616908565b5f82616b1857616b18616877565b500490565b601f821115615d14575f81815260208120601f850160051c81016020861015616b435750805b601f850160051c820191505b8181101561510b57828155600101616b4f565b815167ffffffffffffffff811115616b7c57616b7c6164cc565b616b9081616b8a84546168b7565b84616b1d565b602080601f831160018114616be2575f8415616bac5750858301515b7fffffffffffffffffffffffffffffffffffffffffffffffffffffffffffffffff600386901b1c1916600185901b17855561510b565b5f858152602081207fffffffffffffffffffffffffffffffffffffffffffffffffffffffffffffffe08616915b82811015616c2e57888601518255948401946001909101908401616c0f565b5085821015616c6a57878501517fffffffffffffffffffffffffffffffffffffffffffffffffffffffffffffffff600388901b60f8161c191681555b5050505050600190811b01905550565b5f67ffffffffffffffff808716835280861660208401525060606040830152616ca7606083018486616a56565b9695505050505050565b808201808211156161bb576161bb616908565b5f82357fffffffffffffffffffffffffffffffffffffffffffffffffffffffffffffffa1833603018112616856575f80fd5b5f60608236031215616d06575f80fd5b6040516060810167ffffffffffffffff8282108183111715616d2a57616d2a6164cc565b816040528435915080821115616d3e575f80fd5b50616d4b368286016164f9565b82525060208301356020820152616d64604084016160bf565b604082015292915050565b818382375f9101908152919050565b84815273ffffffffffffffffffffffffffffffffffffffff84166020820152606060408201525f616ca7606083018486616a56565b6103208101610300808584378201835f5b6001811015616de3578151835260209283019290910190600101616dc4565b5050509392505050565b5f60208284031215616dfd575f80fd5b815180151581146161a4575f80fd5b5f67ffffffffffffffff80841680616e2657616e26616877565b9216919091049291505056fea26469706673582212201ea3557982cabbd4dc8f53e95be8ae251cfd9001fba78b0fa96b4759e40d9aaa64736f6c63430008140033",
  "linkReferences": {},
  "deployedLinkReferences": {}
}