{
  "_format": "hh-sol-artifact-1",
  "contractName": "PolygonZkEVM",
  "sourceName": "contracts/PolygonZkEVM.sol",
  "abi": [
    {
      "inputs": [
        {
          "internalType": "contract IPolygonZkEVMGlobalExitRoot",
          "name": "_globalExitRootManager",
          "type": "address"
        },
        {
          "internalType": "contract IERC20Upgradeable",
          "name": "_matic",
          "type": "address"
        },
        {
          "internalType": "contract IVerifierRollup",
          "name": "_rollupVerifier",
          "type": "address"
        },
        {
          "internalType": "contract IPolygonZkEVMBridge",
          "name": "_bridgeAddress",
          "type": "address"
        },
        {
          "internalType": "contract IDataCommittee",
          "name": "_dataCommitteeAddress",
          "type": "address"
        },
        {
          "internalType": "uint64",
          "name": "_chainID",
          "type": "uint64"
        },
        {
          "internalType": "uint64",
          "name": "_forkID",
          "type": "uint64"
        }
      ],
      "stateMutability": "nonpayable",
      "type": "constructor"
    },
    {
      "inputs": [],
      "name": "BatchAlreadyVerified",
      "type": "error"
    },
    {
      "inputs": [],
      "name": "BatchNotSequencedOrNotSequenceEnd",
      "type": "error"
    },
    {
      "inputs": [],
      "name": "ExceedMaxVerifyBatches",
      "type": "error"
    },
    {
      "inputs": [],
      "name": "FinalNumBatchBelowLastVerifiedBatch",
      "type": "error"
    },
    {
      "inputs": [],
      "name": "FinalNumBatchDoesNotMatchPendingState",
      "type": "error"
    },
    {
      "inputs": [],
      "name": "FinalPendingStateNumInvalid",
      "type": "error"
    },
    {
      "inputs": [],
      "name": "ForceBatchNotAllowed",
      "type": "error"
    },
    {
      "inputs": [],
      "name": "ForceBatchTimeoutNotExpired",
      "type": "error"
    },
    {
      "inputs": [],
      "name": "ForceBatchesAlreadyActive",
      "type": "error"
    },
    {
      "inputs": [],
      "name": "ForceBatchesOverflow",
      "type": "error"
    },
    {
      "inputs": [],
      "name": "ForcedDataDoesNotMatch",
      "type": "error"
    },
    {
      "inputs": [],
      "name": "GlobalExitRootNotExist",
      "type": "error"
    },
    {
      "inputs": [],
      "name": "HaltTimeoutNotExpired",
      "type": "error"
    },
    {
      "inputs": [],
      "name": "InitNumBatchAboveLastVerifiedBatch",
      "type": "error"
    },
    {
      "inputs": [],
      "name": "InitNumBatchDoesNotMatchPendingState",
      "type": "error"
    },
    {
      "inputs": [],
      "name": "InvalidProof",
      "type": "error"
    },
    {
      "inputs": [],
      "name": "InvalidRangeBatchTimeTarget",
      "type": "error"
    },
    {
      "inputs": [],
      "name": "InvalidRangeForceBatchTimeout",
      "type": "error"
    },
    {
      "inputs": [],
      "name": "InvalidRangeMultiplierBatchFee",
      "type": "error"
    },
    {
      "inputs": [],
      "name": "NewAccInputHashDoesNotExist",
      "type": "error"
    },
    {
      "inputs": [],
      "name": "NewPendingStateTimeoutMustBeLower",
      "type": "error"
    },
    {
      "inputs": [],
      "name": "NewStateRootNotInsidePrime",
      "type": "error"
    },
    {
      "inputs": [],
      "name": "NewTrustedAggregatorTimeoutMustBeLower",
      "type": "error"
    },
    {
      "inputs": [],
      "name": "NotEnoughMaticAmount",
      "type": "error"
    },
    {
      "inputs": [],
      "name": "OldAccInputHashDoesNotExist",
      "type": "error"
    },
    {
      "inputs": [],
      "name": "OldStateRootDoesNotExist",
      "type": "error"
    },
    {
      "inputs": [],
      "name": "OnlyAdmin",
      "type": "error"
    },
    {
      "inputs": [],
      "name": "OnlyEmergencyState",
      "type": "error"
    },
    {
      "inputs": [],
      "name": "OnlyNotEmergencyState",
      "type": "error"
    },
    {
      "inputs": [],
      "name": "OnlyPendingAdmin",
      "type": "error"
    },
    {
      "inputs": [],
      "name": "OnlyTrustedAggregator",
      "type": "error"
    },
    {
      "inputs": [],
      "name": "OnlyTrustedSequencer",
      "type": "error"
    },
    {
      "inputs": [],
      "name": "PendingStateDoesNotExist",
      "type": "error"
    },
    {
      "inputs": [],
      "name": "PendingStateInvalid",
      "type": "error"
    },
    {
      "inputs": [],
      "name": "PendingStateNotConsolidable",
      "type": "error"
    },
    {
      "inputs": [],
      "name": "PendingStateTimeoutExceedHaltAggregationTimeout",
      "type": "error"
    },
    {
      "inputs": [],
      "name": "SequenceZeroBatches",
      "type": "error"
    },
    {
      "inputs": [],
      "name": "SequencedTimestampBelowForcedTimestamp",
      "type": "error"
    },
    {
      "inputs": [],
      "name": "SequencedTimestampInvalid",
      "type": "error"
    },
    {
      "inputs": [],
      "name": "StoredRootMustBeDifferentThanNewRoot",
      "type": "error"
    },
    {
      "inputs": [],
      "name": "TransactionsLengthAboveMax",
      "type": "error"
    },
    {
      "inputs": [],
      "name": "TrustedAggregatorTimeoutExceedHaltAggregationTimeout",
      "type": "error"
    },
    {
      "inputs": [],
      "name": "TrustedAggregatorTimeoutNotExpired",
      "type": "error"
    },
    {
      "anonymous": false,
      "inputs": [
        {
          "indexed": false,
          "internalType": "address",
          "name": "newAdmin",
          "type": "address"
        }
      ],
      "name": "AcceptAdminRole",
      "type": "event"
    },
    {
      "anonymous": false,
      "inputs": [],
      "name": "ActivateForceBatches",
      "type": "event"
    },
    {
      "anonymous": false,
      "inputs": [
        {
          "indexed": true,
          "internalType": "uint64",
          "name": "numBatch",
          "type": "uint64"
        },
        {
          "indexed": false,
          "internalType": "bytes32",
          "name": "stateRoot",
          "type": "bytes32"
        },
        {
          "indexed": true,
          "internalType": "uint64",
          "name": "pendingStateNum",
          "type": "uint64"
        }
      ],
      "name": "ConsolidatePendingState",
      "type": "event"
    },
    {
      "anonymous": false,
      "inputs": [],
      "name": "EmergencyStateActivated",
      "type": "event"
    },
    {
      "anonymous": false,
      "inputs": [],
      "name": "EmergencyStateDeactivated",
      "type": "event"
    },
    {
      "anonymous": false,
      "inputs": [
        {
          "indexed": true,
          "internalType": "uint64",
          "name": "forceBatchNum",
          "type": "uint64"
        },
        {
          "indexed": false,
          "internalType": "bytes32",
          "name": "lastGlobalExitRoot",
          "type": "bytes32"
        },
        {
          "indexed": false,
          "internalType": "address",
          "name": "sequencer",
          "type": "address"
        },
        {
          "indexed": false,
          "internalType": "bytes",
          "name": "transactions",
          "type": "bytes"
        }
      ],
      "name": "ForceBatch",
      "type": "event"
    },
    {
      "anonymous": false,
      "inputs": [
        {
          "indexed": false,
          "internalType": "uint8",
          "name": "version",
          "type": "uint8"
        }
      ],
      "name": "Initialized",
      "type": "event"
    },
    {
      "anonymous": false,
      "inputs": [
        {
          "indexed": true,
          "internalType": "uint64",
          "name": "numBatch",
          "type": "uint64"
        },
        {
          "indexed": false,
          "internalType": "bytes32",
          "name": "stateRoot",
          "type": "bytes32"
        },
        {
          "indexed": true,
          "internalType": "address",
          "name": "aggregator",
          "type": "address"
        }
      ],
      "name": "OverridePendingState",
      "type": "event"
    },
    {
      "anonymous": false,
      "inputs": [
        {
          "indexed": true,
          "internalType": "address",
          "name": "previousOwner",
          "type": "address"
        },
        {
          "indexed": true,
          "internalType": "address",
          "name": "newOwner",
          "type": "address"
        }
      ],
      "name": "OwnershipTransferred",
      "type": "event"
    },
    {
      "anonymous": false,
      "inputs": [
        {
          "indexed": false,
          "internalType": "bytes32",
          "name": "storedStateRoot",
          "type": "bytes32"
        },
        {
          "indexed": false,
          "internalType": "bytes32",
          "name": "provedStateRoot",
          "type": "bytes32"
        }
      ],
      "name": "ProveNonDeterministicPendingState",
      "type": "event"
    },
    {
      "anonymous": false,
      "inputs": [
        {
          "indexed": true,
          "internalType": "uint64",
          "name": "numBatch",
          "type": "uint64"
        }
      ],
      "name": "SequenceBatches",
      "type": "event"
    },
    {
      "anonymous": false,
      "inputs": [
        {
          "indexed": true,
          "internalType": "uint64",
          "name": "numBatch",
          "type": "uint64"
        }
      ],
      "name": "SequenceForceBatches",
      "type": "event"
    },
    {
      "anonymous": false,
      "inputs": [
        {
          "indexed": false,
          "internalType": "uint64",
          "name": "newforceBatchTimeout",
          "type": "uint64"
        }
      ],
      "name": "SetForceBatchTimeout",
      "type": "event"
    },
    {
      "anonymous": false,
      "inputs": [
        {
          "indexed": false,
          "internalType": "uint16",
          "name": "newMultiplierBatchFee",
          "type": "uint16"
        }
      ],
      "name": "SetMultiplierBatchFee",
      "type": "event"
    },
    {
      "anonymous": false,
      "inputs": [
        {
          "indexed": false,
          "internalType": "uint64",
          "name": "newPendingStateTimeout",
          "type": "uint64"
        }
      ],
      "name": "SetPendingStateTimeout",
      "type": "event"
    },
    {
      "anonymous": false,
      "inputs": [
        {
          "indexed": false,
          "internalType": "address",
          "name": "newTrustedAggregator",
          "type": "address"
        }
      ],
      "name": "SetTrustedAggregator",
      "type": "event"
    },
    {
      "anonymous": false,
      "inputs": [
        {
          "indexed": false,
          "internalType": "uint64",
          "name": "newTrustedAggregatorTimeout",
          "type": "uint64"
        }
      ],
      "name": "SetTrustedAggregatorTimeout",
      "type": "event"
    },
    {
      "anonymous": false,
      "inputs": [
        {
          "indexed": false,
          "internalType": "address",
          "name": "newTrustedSequencer",
          "type": "address"
        }
      ],
      "name": "SetTrustedSequencer",
      "type": "event"
    },
    {
      "anonymous": false,
      "inputs": [
        {
          "indexed": false,
          "internalType": "string",
          "name": "newTrustedSequencerURL",
          "type": "string"
        }
      ],
      "name": "SetTrustedSequencerURL",
      "type": "event"
    },
    {
      "anonymous": false,
      "inputs": [
        {
          "indexed": false,
          "internalType": "uint64",
          "name": "newVerifyBatchTimeTarget",
          "type": "uint64"
        }
      ],
      "name": "SetVerifyBatchTimeTarget",
      "type": "event"
    },
    {
      "anonymous": false,
      "inputs": [
        {
          "indexed": false,
          "internalType": "address",
          "name": "newPendingAdmin",
          "type": "address"
        }
      ],
      "name": "TransferAdminRole",
      "type": "event"
    },
    {
      "anonymous": false,
      "inputs": [
        {
          "indexed": false,
          "internalType": "uint64",
          "name": "numBatch",
          "type": "uint64"
        },
        {
          "indexed": false,
          "internalType": "uint64",
          "name": "forkID",
          "type": "uint64"
        },
        {
          "indexed": false,
          "internalType": "string",
          "name": "version",
          "type": "string"
        }
      ],
      "name": "UpdateZkEVMVersion",
      "type": "event"
    },
    {
      "anonymous": false,
      "inputs": [
        {
          "indexed": true,
          "internalType": "uint64",
          "name": "numBatch",
          "type": "uint64"
        },
        {
          "indexed": false,
          "internalType": "bytes32",
          "name": "stateRoot",
          "type": "bytes32"
        },
        {
          "indexed": true,
          "internalType": "address",
          "name": "aggregator",
          "type": "address"
        }
      ],
      "name": "VerifyBatches",
      "type": "event"
    },
    {
      "anonymous": false,
      "inputs": [
        {
          "indexed": true,
          "internalType": "uint64",
          "name": "numBatch",
          "type": "uint64"
        },
        {
          "indexed": false,
          "internalType": "bytes32",
          "name": "stateRoot",
          "type": "bytes32"
        },
        {
          "indexed": true,
          "internalType": "address",
          "name": "aggregator",
          "type": "address"
        }
      ],
      "name": "VerifyBatchesTrustedAggregator",
      "type": "event"
    },
    {
      "inputs": [],
      "name": "acceptAdminRole",
      "outputs": [],
      "stateMutability": "nonpayable",
      "type": "function"
    },
    {
      "inputs": [
        {
          "internalType": "uint64",
          "name": "sequencedBatchNum",
          "type": "uint64"
        }
      ],
      "name": "activateEmergencyState",
      "outputs": [],
      "stateMutability": "nonpayable",
      "type": "function"
    },
    {
      "inputs": [],
      "name": "activateForceBatches",
      "outputs": [],
      "stateMutability": "nonpayable",
      "type": "function"
    },
    {
      "inputs": [],
      "name": "admin",
      "outputs": [
        {
          "internalType": "address",
          "name": "",
          "type": "address"
        }
      ],
      "stateMutability": "view",
      "type": "function"
    },
    {
      "inputs": [],
      "name": "batchFee",
      "outputs": [
        {
          "internalType": "uint256",
          "name": "",
          "type": "uint256"
        }
      ],
      "stateMutability": "view",
      "type": "function"
    },
    {
      "inputs": [
        {
          "internalType": "uint64",
          "name": "",
          "type": "uint64"
        }
      ],
      "name": "batchNumToStateRoot",
      "outputs": [
        {
          "internalType": "bytes32",
          "name": "",
          "type": "bytes32"
        }
      ],
      "stateMutability": "view",
      "type": "function"
    },
    {
      "inputs": [],
      "name": "bridgeAddress",
      "outputs": [
        {
          "internalType": "contract IPolygonZkEVMBridge",
          "name": "",
          "type": "address"
        }
      ],
      "stateMutability": "view",
      "type": "function"
    },
    {
      "inputs": [],
      "name": "calculateRewardPerBatch",
      "outputs": [
        {
          "internalType": "uint256",
          "name": "",
          "type": "uint256"
        }
      ],
      "stateMutability": "view",
      "type": "function"
    },
    {
      "inputs": [],
      "name": "chainID",
      "outputs": [
        {
          "internalType": "uint64",
          "name": "",
          "type": "uint64"
        }
      ],
      "stateMutability": "view",
      "type": "function"
    },
    {
      "inputs": [
        {
          "internalType": "uint256",
          "name": "newStateRoot",
          "type": "uint256"
        }
      ],
      "name": "checkStateRootInsidePrime",
      "outputs": [
        {
          "internalType": "bool",
          "name": "",
          "type": "bool"
        }
      ],
      "stateMutability": "pure",
      "type": "function"
    },
    {
      "inputs": [
        {
          "internalType": "uint64",
          "name": "pendingStateNum",
          "type": "uint64"
        }
      ],
      "name": "consolidatePendingState",
      "outputs": [],
      "stateMutability": "nonpayable",
      "type": "function"
    },
    {
      "inputs": [],
      "name": "dataCommitteeAddress",
      "outputs": [
        {
          "internalType": "contract IDataCommittee",
          "name": "",
          "type": "address"
        }
      ],
      "stateMutability": "view",
      "type": "function"
    },
    {
      "inputs": [],
      "name": "deactivateEmergencyState",
      "outputs": [],
      "stateMutability": "nonpayable",
      "type": "function"
    },
    {
      "inputs": [
        {
          "internalType": "bytes",
          "name": "transactions",
          "type": "bytes"
        },
        {
          "internalType": "uint256",
          "name": "maticAmount",
          "type": "uint256"
        }
      ],
      "name": "forceBatch",
      "outputs": [],
      "stateMutability": "nonpayable",
      "type": "function"
    },
    {
      "inputs": [],
      "name": "forceBatchTimeout",
      "outputs": [
        {
          "internalType": "uint64",
          "name": "",
          "type": "uint64"
        }
      ],
      "stateMutability": "view",
      "type": "function"
    },
    {
      "inputs": [
        {
          "internalType": "uint64",
          "name": "",
          "type": "uint64"
        }
      ],
      "name": "forcedBatches",
      "outputs": [
        {
          "internalType": "bytes32",
          "name": "",
          "type": "bytes32"
        }
      ],
      "stateMutability": "view",
      "type": "function"
    },
    {
      "inputs": [],
      "name": "forkID",
      "outputs": [
        {
          "internalType": "uint64",
          "name": "",
          "type": "uint64"
        }
      ],
      "stateMutability": "view",
      "type": "function"
    },
    {
      "inputs": [],
      "name": "getForcedBatchFee",
      "outputs": [
        {
          "internalType": "uint256",
          "name": "",
          "type": "uint256"
        }
      ],
      "stateMutability": "view",
      "type": "function"
    },
    {
      "inputs": [
        {
          "internalType": "uint64",
          "name": "initNumBatch",
          "type": "uint64"
        },
        {
          "internalType": "uint64",
          "name": "finalNewBatch",
          "type": "uint64"
        },
        {
          "internalType": "bytes32",
          "name": "newLocalExitRoot",
          "type": "bytes32"
        },
        {
          "internalType": "bytes32",
          "name": "oldStateRoot",
          "type": "bytes32"
        },
        {
          "internalType": "bytes32",
          "name": "newStateRoot",
          "type": "bytes32"
        }
      ],
      "name": "getInputSnarkBytes",
      "outputs": [
        {
          "internalType": "bytes",
          "name": "",
          "type": "bytes"
        }
      ],
      "stateMutability": "view",
      "type": "function"
    },
    {
      "inputs": [],
      "name": "getLastVerifiedBatch",
      "outputs": [
        {
          "internalType": "uint64",
          "name": "",
          "type": "uint64"
        }
      ],
      "stateMutability": "view",
      "type": "function"
    },
    {
      "inputs": [],
      "name": "globalExitRootManager",
      "outputs": [
        {
          "internalType": "contract IPolygonZkEVMGlobalExitRoot",
          "name": "",
          "type": "address"
        }
      ],
      "stateMutability": "view",
      "type": "function"
    },
    {
      "inputs": [
        {
          "components": [
            {
              "internalType": "address",
              "name": "admin",
              "type": "address"
            },
            {
              "internalType": "address",
              "name": "trustedSequencer",
              "type": "address"
            },
            {
              "internalType": "uint64",
              "name": "pendingStateTimeout",
              "type": "uint64"
            },
            {
              "internalType": "address",
              "name": "trustedAggregator",
              "type": "address"
            },
            {
              "internalType": "uint64",
              "name": "trustedAggregatorTimeout",
              "type": "uint64"
            }
          ],
          "internalType": "struct PolygonZkEVM.InitializePackedParameters",
          "name": "initializePackedParameters",
          "type": "tuple"
        },
        {
          "internalType": "bytes32",
          "name": "genesisRoot",
          "type": "bytes32"
        },
        {
          "internalType": "string",
          "name": "_trustedSequencerURL",
          "type": "string"
        },
        {
          "internalType": "string",
          "name": "_networkName",
          "type": "string"
        },
        {
          "internalType": "string",
          "name": "_version",
          "type": "string"
        }
      ],
      "name": "initialize",
      "outputs": [],
      "stateMutability": "nonpayable",
      "type": "function"
    },
    {
      "inputs": [],
      "name": "isEmergencyState",
      "outputs": [
        {
          "internalType": "bool",
          "name": "",
          "type": "bool"
        }
      ],
      "stateMutability": "view",
      "type": "function"
    },
    {
      "inputs": [],
      "name": "isForcedBatchDisallowed",
      "outputs": [
        {
          "internalType": "bool",
          "name": "",
          "type": "bool"
        }
      ],
      "stateMutability": "view",
      "type": "function"
    },
    {
      "inputs": [
        {
          "internalType": "uint64",
          "name": "pendingStateNum",
          "type": "uint64"
        }
      ],
      "name": "isPendingStateConsolidable",
      "outputs": [
        {
          "internalType": "bool",
          "name": "",
          "type": "bool"
        }
      ],
      "stateMutability": "view",
      "type": "function"
    },
    {
      "inputs": [],
      "name": "lastBatchSequenced",
      "outputs": [
        {
          "internalType": "uint64",
          "name": "",
          "type": "uint64"
        }
      ],
      "stateMutability": "view",
      "type": "function"
    },
    {
      "inputs": [],
      "name": "lastForceBatch",
      "outputs": [
        {
          "internalType": "uint64",
          "name": "",
          "type": "uint64"
        }
      ],
      "stateMutability": "view",
      "type": "function"
    },
    {
      "inputs": [],
      "name": "lastForceBatchSequenced",
      "outputs": [
        {
          "internalType": "uint64",
          "name": "",
          "type": "uint64"
        }
      ],
      "stateMutability": "view",
      "type": "function"
    },
    {
      "inputs": [],
      "name": "lastPendingState",
      "outputs": [
        {
          "internalType": "uint64",
          "name": "",
          "type": "uint64"
        }
      ],
      "stateMutability": "view",
      "type": "function"
    },
    {
      "inputs": [],
      "name": "lastPendingStateConsolidated",
      "outputs": [
        {
          "internalType": "uint64",
          "name": "",
          "type": "uint64"
        }
      ],
      "stateMutability": "view",
      "type": "function"
    },
    {
      "inputs": [],
      "name": "lastTimestamp",
      "outputs": [
        {
          "internalType": "uint64",
          "name": "",
          "type": "uint64"
        }
      ],
      "stateMutability": "view",
      "type": "function"
    },
    {
      "inputs": [],
      "name": "lastVerifiedBatch",
      "outputs": [
        {
          "internalType": "uint64",
          "name": "",
          "type": "uint64"
        }
      ],
      "stateMutability": "view",
      "type": "function"
    },
    {
      "inputs": [],
      "name": "matic",
      "outputs": [
        {
          "internalType": "contract IERC20Upgradeable",
          "name": "",
          "type": "address"
        }
      ],
      "stateMutability": "view",
      "type": "function"
    },
    {
      "inputs": [],
      "name": "multiplierBatchFee",
      "outputs": [
        {
          "internalType": "uint16",
          "name": "",
          "type": "uint16"
        }
      ],
      "stateMutability": "view",
      "type": "function"
    },
    {
      "inputs": [],
      "name": "networkName",
      "outputs": [
        {
          "internalType": "string",
          "name": "",
          "type": "string"
        }
      ],
      "stateMutability": "view",
      "type": "function"
    },
    {
      "inputs": [
        {
          "internalType": "uint64",
          "name": "initPendingStateNum",
          "type": "uint64"
        },
        {
          "internalType": "uint64",
          "name": "finalPendingStateNum",
          "type": "uint64"
        },
        {
          "internalType": "uint64",
          "name": "initNumBatch",
          "type": "uint64"
        },
        {
          "internalType": "uint64",
          "name": "finalNewBatch",
          "type": "uint64"
        },
        {
          "internalType": "bytes32",
          "name": "newLocalExitRoot",
          "type": "bytes32"
        },
        {
          "internalType": "bytes32",
          "name": "newStateRoot",
          "type": "bytes32"
        },
        {
          "internalType": "bytes32[24]",
          "name": "proof",
          "type": "bytes32[24]"
        }
      ],
      "name": "overridePendingState",
      "outputs": [],
      "stateMutability": "nonpayable",
      "type": "function"
    },
    {
      "inputs": [],
      "name": "owner",
      "outputs": [
        {
          "internalType": "address",
          "name": "",
          "type": "address"
        }
      ],
      "stateMutability": "view",
      "type": "function"
    },
    {
      "inputs": [],
      "name": "pendingAdmin",
      "outputs": [
        {
          "internalType": "address",
          "name": "",
          "type": "address"
        }
      ],
      "stateMutability": "view",
      "type": "function"
    },
    {
      "inputs": [],
      "name": "pendingStateTimeout",
      "outputs": [
        {
          "internalType": "uint64",
          "name": "",
          "type": "uint64"
        }
      ],
      "stateMutability": "view",
      "type": "function"
    },
    {
      "inputs": [
        {
          "internalType": "uint256",
          "name": "",
          "type": "uint256"
        }
      ],
      "name": "pendingStateTransitions",
      "outputs": [
        {
          "internalType": "uint64",
          "name": "timestamp",
          "type": "uint64"
        },
        {
          "internalType": "uint64",
          "name": "lastVerifiedBatch",
          "type": "uint64"
        },
        {
          "internalType": "bytes32",
          "name": "exitRoot",
          "type": "bytes32"
        },
        {
          "internalType": "bytes32",
          "name": "stateRoot",
          "type": "bytes32"
        }
      ],
      "stateMutability": "view",
      "type": "function"
    },
    {
      "inputs": [
        {
          "internalType": "uint64",
          "name": "initPendingStateNum",
          "type": "uint64"
        },
        {
          "internalType": "uint64",
          "name": "finalPendingStateNum",
          "type": "uint64"
        },
        {
          "internalType": "uint64",
          "name": "initNumBatch",
          "type": "uint64"
        },
        {
          "internalType": "uint64",
          "name": "finalNewBatch",
          "type": "uint64"
        },
        {
          "internalType": "bytes32",
          "name": "newLocalExitRoot",
          "type": "bytes32"
        },
        {
          "internalType": "bytes32",
          "name": "newStateRoot",
          "type": "bytes32"
        },
        {
          "internalType": "bytes32[24]",
          "name": "proof",
          "type": "bytes32[24]"
        }
      ],
      "name": "proveNonDeterministicPendingState",
      "outputs": [],
      "stateMutability": "nonpayable",
      "type": "function"
    },
    {
      "inputs": [],
      "name": "renounceOwnership",
      "outputs": [],
      "stateMutability": "nonpayable",
      "type": "function"
    },
    {
      "inputs": [],
      "name": "rollupVerifier",
      "outputs": [
        {
          "internalType": "contract IVerifierRollup",
          "name": "",
          "type": "address"
        }
      ],
      "stateMutability": "view",
      "type": "function"
    },
    {
      "inputs": [
        {
          "components": [
            {
              "internalType": "bytes32",
              "name": "transactionsHash",
              "type": "bytes32"
            },
            {
              "internalType": "bytes32",
              "name": "globalExitRoot",
              "type": "bytes32"
            },
            {
              "internalType": "uint64",
              "name": "timestamp",
              "type": "uint64"
            },
            {
              "internalType": "uint64",
              "name": "minForcedTimestamp",
              "type": "uint64"
            }
          ],
          "internalType": "struct PolygonZkEVM.BatchData[]",
          "name": "batches",
          "type": "tuple[]"
        },
        {
          "internalType": "address",
          "name": "l2Coinbase",
          "type": "address"
        },
        {
          "internalType": "bytes",
          "name": "signaturesAndAddrs",
          "type": "bytes"
        }
      ],
      "name": "sequenceBatches",
      "outputs": [],
      "stateMutability": "nonpayable",
      "type": "function"
    },
    {
      "inputs": [
        {
          "components": [
            {
              "internalType": "bytes",
              "name": "transactions",
              "type": "bytes"
            },
            {
              "internalType": "bytes32",
              "name": "globalExitRoot",
              "type": "bytes32"
            },
            {
              "internalType": "uint64",
              "name": "minForcedTimestamp",
              "type": "uint64"
            }
          ],
          "internalType": "struct PolygonZkEVM.ForcedBatchData[]",
          "name": "batches",
          "type": "tuple[]"
        }
      ],
      "name": "sequenceForceBatches",
      "outputs": [],
      "stateMutability": "nonpayable",
      "type": "function"
    },
    {
      "inputs": [
        {
          "internalType": "uint64",
          "name": "",
          "type": "uint64"
        }
      ],
      "name": "sequencedBatches",
      "outputs": [
        {
          "internalType": "bytes32",
          "name": "accInputHash",
          "type": "bytes32"
        },
        {
          "internalType": "uint64",
          "name": "sequencedTimestamp",
          "type": "uint64"
        },
        {
          "internalType": "uint64",
          "name": "previousLastBatchSequenced",
          "type": "uint64"
        }
      ],
      "stateMutability": "view",
      "type": "function"
    },
    {
      "inputs": [
        {
          "internalType": "uint16",
          "name": "newBatchFee",
          "type": "uint16"
        }
      ],
      "name": "setBatchFee",
      "outputs": [],
      "stateMutability": "nonpayable",
      "type": "function"
    },
    {
      "inputs": [
        {
          "internalType": "uint64",
          "name": "newforceBatchTimeout",
          "type": "uint64"
        }
      ],
      "name": "setForceBatchTimeout",
      "outputs": [],
      "stateMutability": "nonpayable",
      "type": "function"
    },
    {
      "inputs": [
        {
          "internalType": "uint16",
          "name": "newMultiplierBatchFee",
          "type": "uint16"
        }
      ],
      "name": "setMultiplierBatchFee",
      "outputs": [],
      "stateMutability": "nonpayable",
      "type": "function"
    },
    {
      "inputs": [
        {
          "internalType": "uint64",
          "name": "newPendingStateTimeout",
          "type": "uint64"
        }
      ],
      "name": "setPendingStateTimeout",
      "outputs": [],
      "stateMutability": "nonpayable",
      "type": "function"
    },
    {
      "inputs": [
        {
          "internalType": "address",
          "name": "newTrustedAggregator",
          "type": "address"
        }
      ],
      "name": "setTrustedAggregator",
      "outputs": [],
      "stateMutability": "nonpayable",
      "type": "function"
    },
    {
      "inputs": [
        {
          "internalType": "uint64",
          "name": "newTrustedAggregatorTimeout",
          "type": "uint64"
        }
      ],
      "name": "setTrustedAggregatorTimeout",
      "outputs": [],
      "stateMutability": "nonpayable",
      "type": "function"
    },
    {
      "inputs": [
        {
          "internalType": "address",
          "name": "newTrustedSequencer",
          "type": "address"
        }
      ],
      "name": "setTrustedSequencer",
      "outputs": [],
      "stateMutability": "nonpayable",
      "type": "function"
    },
    {
      "inputs": [
        {
          "internalType": "string",
          "name": "newTrustedSequencerURL",
          "type": "string"
        }
      ],
      "name": "setTrustedSequencerURL",
      "outputs": [],
      "stateMutability": "nonpayable",
      "type": "function"
    },
    {
      "inputs": [
        {
          "internalType": "uint64",
          "name": "newVerifyBatchTimeTarget",
          "type": "uint64"
        }
      ],
      "name": "setVerifyBatchTimeTarget",
      "outputs": [],
      "stateMutability": "nonpayable",
      "type": "function"
    },
    {
      "inputs": [
        {
          "internalType": "address",
          "name": "newPendingAdmin",
          "type": "address"
        }
      ],
      "name": "transferAdminRole",
      "outputs": [],
      "stateMutability": "nonpayable",
      "type": "function"
    },
    {
      "inputs": [
        {
          "internalType": "address",
          "name": "newOwner",
          "type": "address"
        }
      ],
      "name": "transferOwnership",
      "outputs": [],
      "stateMutability": "nonpayable",
      "type": "function"
    },
    {
      "inputs": [],
      "name": "trustedAggregator",
      "outputs": [
        {
          "internalType": "address",
          "name": "",
          "type": "address"
        }
      ],
      "stateMutability": "view",
      "type": "function"
    },
    {
      "inputs": [],
      "name": "trustedAggregatorTimeout",
      "outputs": [
        {
          "internalType": "uint64",
          "name": "",
          "type": "uint64"
        }
      ],
      "stateMutability": "view",
      "type": "function"
    },
    {
      "inputs": [],
      "name": "trustedSequencer",
      "outputs": [
        {
          "internalType": "address",
          "name": "",
          "type": "address"
        }
      ],
      "stateMutability": "view",
      "type": "function"
    },
    {
      "inputs": [],
      "name": "trustedSequencerURL",
      "outputs": [
        {
          "internalType": "string",
          "name": "",
          "type": "string"
        }
      ],
      "stateMutability": "view",
      "type": "function"
    },
    {
      "inputs": [],
      "name": "verifyBatchTimeTarget",
      "outputs": [
        {
          "internalType": "uint64",
          "name": "",
          "type": "uint64"
        }
      ],
      "stateMutability": "view",
      "type": "function"
    },
    {
      "inputs": [
        {
          "internalType": "uint64",
          "name": "pendingStateNum",
          "type": "uint64"
        },
        {
          "internalType": "uint64",
          "name": "initNumBatch",
          "type": "uint64"
        },
        {
          "internalType": "uint64",
          "name": "finalNewBatch",
          "type": "uint64"
        },
        {
          "internalType": "bytes32",
          "name": "newLocalExitRoot",
          "type": "bytes32"
        },
        {
          "internalType": "bytes32",
          "name": "newStateRoot",
          "type": "bytes32"
        },
        {
          "internalType": "bytes32[24]",
          "name": "proof",
          "type": "bytes32[24]"
        }
      ],
      "name": "verifyBatches",
      "outputs": [],
      "stateMutability": "nonpayable",
      "type": "function"
    },
    {
      "inputs": [
        {
          "internalType": "uint64",
          "name": "pendingStateNum",
          "type": "uint64"
        },
        {
          "internalType": "uint64",
          "name": "initNumBatch",
          "type": "uint64"
        },
        {
          "internalType": "uint64",
          "name": "finalNewBatch",
          "type": "uint64"
        },
        {
          "internalType": "bytes32",
          "name": "newLocalExitRoot",
          "type": "bytes32"
        },
        {
          "internalType": "bytes32",
          "name": "newStateRoot",
          "type": "bytes32"
        },
        {
          "internalType": "bytes32[24]",
          "name": "proof",
          "type": "bytes32[24]"
        }
      ],
      "name": "verifyBatchesTrustedAggregator",
      "outputs": [],
      "stateMutability": "nonpayable",
      "type": "function"
    }
  ],
  "bytecode": "0x61016060405234801562000011575f80fd5b50604051620060ce380380620060ce8339810160408190526200003491620000a9565b6001600160a01b0396871660c05294861660805292851660a05290841660e052909216610100526001600160401b0391821661012052166101405262000147565b6001600160a01b03811681146200008a575f80fd5b50565b80516001600160401b0381168114620000a4575f80fd5b919050565b5f805f805f805f60e0888a031215620000c0575f80fd5b8751620000cd8162000075565b6020890151909750620000e08162000075565b6040890151909650620000f38162000075565b6060890151909550620001068162000075565b6080890151909450620001198162000075565b92506200012960a089016200008d565b91506200013960c089016200008d565b905092959891949750929550565b60805160a05160c05160e051610100516101205161014051615eb06200021e5f395f81816106bf01528181610e2301526131da01525f818161082b0152610df901525f81816105cc015261198d01525f81816107f101528181611bd70152818161386b0152614d0c01525f818161099601528181610f95015281816111600152818161176c015281816121f301528181613a4c015261498f01525f8181610a430152818161415801526145b901525f81816108e601528181611ba5015281816126d801528181613a2101526142560152615eb05ff3fe608060405234801561000f575f80fd5b50600436106103bf575f3560e01c8063841b24d7116101f5578063c89e42df11610114578063e8bf92ed116100a9578063f2fde38b11610079578063f2fde38b14610ab8578063f4d0841214610acb578063f851a44014610ade578063f8b823e414610afe575f80fd5b8063e8bf92ed14610a3e578063eaeb077b14610a65578063ed6b010414610a78578063f14916d614610aa5575f80fd5b8063d8d1091b116100e4578063d8d1091b146109cb578063d939b315146109de578063dbc1697614610a06578063e7a7ed0214610a0e575f80fd5b8063c89e42df1461094f578063cfa8ed4714610962578063d02103ca14610991578063d2e129f9146109b8575f80fd5b8063ada8f9191161018a578063b6b0b0971161015a578063b6b0b097146108e1578063ba58ae3914610908578063c0ed84e01461091b578063c754c7ed14610923575f80fd5b8063ada8f91914610813578063adc879e914610826578063afd23cbe1461084d578063b4d63f581461087b575f80fd5b80639aa972a3116101c55780639aa972a3146107b35780639c9f3dfe146107c6578063a066215c146107d9578063a3c573eb146107ec575f80fd5b8063841b24d7146107555780638c3d7301146107855780638da5cb5b1461078d57806399f5634e146107ab575f80fd5b80634a1a89a7116102e1578063621dd411116102765780637215541a116102465780637215541a146106935780637fcb3653146106a6578063831c7ead146106ba578063837a4738146106e1575f80fd5b8063621dd411146106465780636b8616ce146106595780636ff512cc14610678578063715018a61461068b575f80fd5b80635392c5e0116102b15780635392c5e014610601578063542028d51461062e5780635ec9195814610636578063604691691461063e575f80fd5b80634a1a89a7146105945780634a910e6a146105b45780634df61d24146105c75780634e487706146105ee575f80fd5b80632b0006fa11610357578063423fa85611610327578063423fa85614610525578063438a5399146105455780634560526714610558578063458c047714610580575f80fd5b80632b0006fa146104d95780632c1f816a146104ec578063383b3be8146104ff578063394218e914610512575f80fd5b806319d8ac611161039257806319d8ac6114610441578063220d789914610455578063267822471461046857806329878983146104ad575f80fd5b80630a0d9fbe146103c3578063107bf28c146103fa57806315064c961461040f5780631816b7e51461042c575b5f80fd5b606f546103dc90610100900467ffffffffffffffff1681565b60405167ffffffffffffffff90911681526020015b60405180910390f35b610402610b07565b6040516103f19190615326565b606f5461041c9060ff1681565b60405190151581526020016103f1565b61043f61043a36600461533f565b610b93565b005b6073546103dc9067ffffffffffffffff1681565b610402610463366004615377565b610cab565b607b546104889073ffffffffffffffffffffffffffffffffffffffff1681565b60405173ffffffffffffffffffffffffffffffffffffffff90911681526020016103f1565b6074546104889068010000000000000000900473ffffffffffffffffffffffffffffffffffffffff1681565b61043f6104e73660046153d7565b610e81565b61043f6104fa36600461543b565b61104b565b61041c61050d3660046154b0565b611253565b61043f6105203660046154b0565b6112a8565b6073546103dc9068010000000000000000900467ffffffffffffffff1681565b61043f610553366004615531565b61142c565b6073546103dc90700100000000000000000000000000000000900467ffffffffffffffff1681565b6079546103dc9067ffffffffffffffff1681565b6079546103dc9068010000000000000000900467ffffffffffffffff1681565b61043f6105c23660046154b0565b611c92565b6104887f000000000000000000000000000000000000000000000000000000000000000081565b61043f6105fc3660046154b0565b611d45565b61062061060f3660046154b0565b60756020525f908152604090205481565b6040519081526020016103f1565b610402611ec9565b61043f611ed6565b610620611fd5565b61043f6106543660046153d7565b611fea565b6106206106673660046154b0565b60716020525f908152604090205481565b61043f6106863660046155da565b612370565b61043f612445565b61043f6106a13660046154b0565b612458565b6074546103dc9067ffffffffffffffff1681565b6103dc7f000000000000000000000000000000000000000000000000000000000000000081565b6107296106ef3660046155f3565b60786020525f908152604090208054600182015460029092015467ffffffffffffffff808316936801000000000000000090930416919084565b6040805167ffffffffffffffff95861681529490931660208501529183015260608201526080016103f1565b6079546103dc907801000000000000000000000000000000000000000000000000900467ffffffffffffffff1681565b61043f6125c5565b60335473ffffffffffffffffffffffffffffffffffffffff16610488565b610620612691565b61043f6107c136600461543b565b6127e4565b61043f6107d43660046154b0565b612894565b61043f6107e73660046154b0565b612a10565b6104887f000000000000000000000000000000000000000000000000000000000000000081565b61043f6108213660046155da565b612b16565b6103dc7f000000000000000000000000000000000000000000000000000000000000000081565b606f54610868906901000000000000000000900461ffff1681565b60405161ffff90911681526020016103f1565b6108bb6108893660046154b0565b60726020525f90815260409020805460019091015467ffffffffffffffff808216916801000000000000000090041683565b6040805193845267ffffffffffffffff92831660208501529116908201526060016103f1565b6104887f000000000000000000000000000000000000000000000000000000000000000081565b61041c6109163660046155f3565b612bda565b6103dc612c62565b607b546103dc9074010000000000000000000000000000000000000000900467ffffffffffffffff1681565b61043f61095d3660046156e6565b612cb5565b606f54610488906b010000000000000000000000900473ffffffffffffffffffffffffffffffffffffffff1681565b6104887f000000000000000000000000000000000000000000000000000000000000000081565b61043f6109c6366004615718565b612d42565b61043f6109d93660046157c3565b61327d565b6079546103dc90700100000000000000000000000000000000900467ffffffffffffffff1681565b61043f613818565b6073546103dc907801000000000000000000000000000000000000000000000000900467ffffffffffffffff1681565b6104887f000000000000000000000000000000000000000000000000000000000000000081565b61043f610a73366004615832565b6138ec565b607b5461041c907c0100000000000000000000000000000000000000000000000000000000900460ff1681565b61043f610ab33660046155da565b613cdc565b61043f610ac63660046155da565b613dae565b61043f610ad936600461533f565b613e62565b607a546104889073ffffffffffffffffffffffffffffffffffffffff1681565b61062060705481565b60778054610b149061587a565b80601f0160208091040260200160405190810160405280929190818152602001828054610b409061587a565b8015610b8b5780601f10610b6257610100808354040283529160200191610b8b565b820191905f5260205f20905b815481529060010190602001808311610b6e57829003601f168201915b505050505081565b607a5473ffffffffffffffffffffffffffffffffffffffff163314610be4576040517f4755657900000000000000000000000000000000000000000000000000000000815260040160405180910390fd5b6103e88161ffff161080610bfd57506103ff8161ffff16115b15610c34576040517f4c2533c800000000000000000000000000000000000000000000000000000000815260040160405180910390fd5b606f80547fffffffffffffffffffffffffffffffffffffffffff0000ffffffffffffffffff16690100000000000000000061ffff8416908102919091179091556040519081527f7019933d795eba185c180209e8ae8bffbaa25bcef293364687702c31f4d302c5906020015b60405180910390a150565b67ffffffffffffffff8086165f818152607260205260408082205493881682529020546060929115801590610cde575081155b15610d15576040517f6818c29e00000000000000000000000000000000000000000000000000000000815260040160405180910390fd5b80610d4c576040517f66385b5100000000000000000000000000000000000000000000000000000000815260040160405180910390fd5b610d5584612bda565b610d8b576040517f176b913c00000000000000000000000000000000000000000000000000000000815260040160405180910390fd5b604080517fffffffffffffffffffffffffffffffffffffffff0000000000000000000000003360601b166020820152603481019690965260548601929092527fffffffffffffffff00000000000000000000000000000000000000000000000060c098891b811660748701527f0000000000000000000000000000000000000000000000000000000000000000891b8116607c8701527f0000000000000000000000000000000000000000000000000000000000000000891b81166084870152608c86019490945260ac85015260cc840194909452509290931b90911660ec830152805180830360d401815260f4909201905290565b60745468010000000000000000900473ffffffffffffffffffffffffffffffffffffffff163314610ede576040517fbbcbbc0500000000000000000000000000000000000000000000000000000000815260040160405180910390fd5b610eec868686868686613ebc565b607480547fffffffffffffffffffffffffffffffffffffffffffffffff00000000000000001667ffffffffffffffff8681169182179092555f9081526075602052604090208390556079541615610f6657607980547fffffffffffffffffffffffffffffffff000000000000000000000000000000001690555b6040517f33d6247d000000000000000000000000000000000000000000000000000000008152600481018490527f000000000000000000000000000000000000000000000000000000000000000073ffffffffffffffffffffffffffffffffffffffff16906333d6247d906024015f604051808303815f87803b158015610feb575f80fd5b505af1158015610ffd573d5f803e3d5ffd5b505060405184815233925067ffffffffffffffff871691507fcb339b570a7f0b25afa7333371ff11192092a0aeace12b671f4c212f2815c6fe906020015b60405180910390a3505050505050565b60745468010000000000000000900473ffffffffffffffffffffffffffffffffffffffff1633146110a8576040517fbbcbbc0500000000000000000000000000000000000000000000000000000000815260040160405180910390fd5b6110b78787878787878761428a565b607480547fffffffffffffffffffffffffffffffffffffffffffffffff00000000000000001667ffffffffffffffff8681169182179092555f908152607560205260409020839055607954161561113157607980547fffffffffffffffffffffffffffffffff000000000000000000000000000000001690555b6040517f33d6247d000000000000000000000000000000000000000000000000000000008152600481018490527f000000000000000000000000000000000000000000000000000000000000000073ffffffffffffffffffffffffffffffffffffffff16906333d6247d906024015f604051808303815f87803b1580156111b6575f80fd5b505af11580156111c8573d5f803e3d5ffd5b50506079805477ffffffffffffffffffffffffffffffffffffffffffffffff167a093a800000000000000000000000000000000000000000000000001790555050604051828152339067ffffffffffffffff8616907fcc1b5520188bf1dd3e63f98164b577c4d75c11a619ddea692112f0d1aec4cf729060200160405180910390a350505050505050565b60795467ffffffffffffffff8281165f908152607860205260408120549092429261129692700100000000000000000000000000000000909204811691166158f8565b67ffffffffffffffff16111592915050565b607a5473ffffffffffffffffffffffffffffffffffffffff1633146112f9576040517f4755657900000000000000000000000000000000000000000000000000000000815260040160405180910390fd5b62093a8067ffffffffffffffff82161115611340576040517f1d06e87900000000000000000000000000000000000000000000000000000000815260040160405180910390fd5b606f5460ff166113af5760795467ffffffffffffffff78010000000000000000000000000000000000000000000000009091048116908216106113af576040517f401636df00000000000000000000000000000000000000000000000000000000815260040160405180910390fd5b6079805477ffffffffffffffffffffffffffffffffffffffffffffffff16780100000000000000000000000000000000000000000000000067ffffffffffffffff8416908102919091179091556040519081527f1f4fa24c2e4bad19a7f3ec5c5485f70d46c798461c2e684f55bbd0fc661373a190602001610ca0565b606f5460ff1615611469576040517f2f0047fc00000000000000000000000000000000000000000000000000000000815260040160405180910390fd5b606f546b010000000000000000000000900473ffffffffffffffffffffffffffffffffffffffff1633146114c9576040517f11e7be1500000000000000000000000000000000000000000000000000000000815260040160405180910390fd5b835f819003611504576040517fcb591a5f00000000000000000000000000000000000000000000000000000000815260040160405180910390fd5b6103e8811115611540576040517fb59f753a00000000000000000000000000000000000000000000000000000000815260040160405180910390fd5b60735467ffffffffffffffff68010000000000000000820481165f81815260726020526040812054838516949293700100000000000000000000000000000000909304909216919082905b8681101561194f575f8c8c838181106115a6576115a6615920565b9050608002018036038101906115bc919061594d565b606081015190915067ffffffffffffffff161561172957846115dd816159bc565b9550505f815f01518260200151836060015160405160200161163793929190928352602083019190915260c01b7fffffffffffffffff00000000000000000000000000000000000000000000000016604082015260480190565b604080517fffffffffffffffffffffffffffffffffffffffffffffffffffffffffffffffe0818403018152918152815160209283012067ffffffffffffffff89165f908152607190935291205490915081146116bf576040517fce3d755e00000000000000000000000000000000000000000000000000000000815260040160405180910390fd5b67ffffffffffffffff8087165f908152607160205260408082209190915560608401519084015190821691161015611723576040517f7f7ab87200000000000000000000000000000000000000000000000000000000815260040160405180910390fd5b50611824565b6020810151158015906117ed575060208101516040517f257b363200000000000000000000000000000000000000000000000000000000815260048101919091527f000000000000000000000000000000000000000000000000000000000000000073ffffffffffffffffffffffffffffffffffffffff169063257b3632906024016020604051808303815f875af11580156117c7573d5f803e3d5ffd5b505050506040513d601f19601f820116820180604052508101906117eb91906159e2565b155b15611824576040517f73bd668d00000000000000000000000000000000000000000000000000000000815260040160405180910390fd5b8667ffffffffffffffff16816040015167ffffffffffffffff161080611857575042816040015167ffffffffffffffff16115b1561188e576040517fea82791600000000000000000000000000000000000000000000000000000000815260040160405180910390fd5b83815f0151826020015183604001518e60405160200161191c9594939291909485526020850193909352604084019190915260c01b7fffffffffffffffff000000000000000000000000000000000000000000000000166060808401919091521b7fffffffffffffffffffffffffffffffffffffffff000000000000000000000000166068820152607c0190565b60405160208183030381529060405280519060200120935080604001519650508080611947906159f9565b91505061158b565b506040517fc7a823e000000000000000000000000000000000000000000000000000000000815273ffffffffffffffffffffffffffffffffffffffff7f0000000000000000000000000000000000000000000000000000000000000000169063c7a823e0906119c69085908c908c90600401615a77565b5f6040518083038186803b1580156119dc575f80fd5b505afa1580156119ee573d5f803e3d5ffd5b5050505085846119fe91906158f8565b60735490945067ffffffffffffffff780100000000000000000000000000000000000000000000000090910481169084161115611a67576040517fc630a00d00000000000000000000000000000000000000000000000000000000815260040160405180910390fd5b5f611a728285615a99565b611a869067ffffffffffffffff1688615aba565b604080516060810182528581524267ffffffffffffffff908116602080840191825260738054680100000000000000009081900485168688019081528d86165f8181526072909552979093209551865592516001909501805492519585167fffffffffffffffffffffffffffffffff000000000000000000000000000000009384161795851684029590951790945583548c8416911617930292909217905590915082811690851614611b7b57607380547fffffffffffffffff0000000000000000ffffffffffffffffffffffffffffffff1670010000000000000000000000000000000067ffffffffffffffff8716021790555b611bcd333083607054611b8e9190615acd565b73ffffffffffffffffffffffffffffffffffffffff7f0000000000000000000000000000000000000000000000000000000000000000169291906146b9565b611bd561479b565b7f000000000000000000000000000000000000000000000000000000000000000073ffffffffffffffffffffffffffffffffffffffff166379e2cf976040518163ffffffff1660e01b81526004015f604051808303815f87803b158015611c3a575f80fd5b505af1158015611c4c573d5f803e3d5ffd5b505060405167ffffffffffffffff881692507f303446e6a8cb73c83dff421c0b1d5e5ce0719dab1bff13660fc254e58cc17fce91505f90a2505050505050505050505050565b60745468010000000000000000900473ffffffffffffffffffffffffffffffffffffffff163314611d3957606f5460ff1615611cfa576040517f2f0047fc00000000000000000000000000000000000000000000000000000000815260040160405180910390fd5b611d0381611253565b611d39576040517f0ce9e4a200000000000000000000000000000000000000000000000000000000815260040160405180910390fd5b611d4281614846565b50565b607a5473ffffffffffffffffffffffffffffffffffffffff163314611d96576040517f4755657900000000000000000000000000000000000000000000000000000000815260040160405180910390fd5b62093a8067ffffffffffffffff82161115611ddd576040517ff5e37f2f00000000000000000000000000000000000000000000000000000000815260040160405180910390fd5b606f5460ff16611e4857607b5467ffffffffffffffff74010000000000000000000000000000000000000000909104811690821610611e48576040517ff5e37f2f00000000000000000000000000000000000000000000000000000000815260040160405180910390fd5b607b80547fffffffff0000000000000000ffffffffffffffffffffffffffffffffffffffff167401000000000000000000000000000000000000000067ffffffffffffffff8416908102919091179091556040519081527fa7eb6cb8a613eb4e8bddc1ac3d61ec6cf10898760f0b187bcca794c6ca6fa40b90602001610ca0565b60768054610b149061587a565b607a5473ffffffffffffffffffffffffffffffffffffffff163314611f27576040517f4755657900000000000000000000000000000000000000000000000000000000815260040160405180910390fd5b607b547c0100000000000000000000000000000000000000000000000000000000900460ff16611f83576040517ff6ba91a100000000000000000000000000000000000000000000000000000000815260040160405180910390fd5b607b80547fffffff00ffffffffffffffffffffffffffffffffffffffffffffffffffffffff1690556040517f854dd6ce5a1445c4c54388b21cffd11cf5bba1b9e763aec48ce3da75d617412f905f90a1565b5f6070546064611fe59190615acd565b905090565b606f5460ff1615612027576040517f2f0047fc00000000000000000000000000000000000000000000000000000000815260040160405180910390fd5b60795467ffffffffffffffff8581165f908152607260205260409020600101544292612073927801000000000000000000000000000000000000000000000000909104811691166158f8565b67ffffffffffffffff1611156120b5576040517f8a0704d300000000000000000000000000000000000000000000000000000000815260040160405180910390fd5b6103e86120c28686615a99565b67ffffffffffffffff161115612104576040517fb59f753a00000000000000000000000000000000000000000000000000000000815260040160405180910390fd5b612112868686868686613ebc565b607054156121235761212384614a53565b607954700100000000000000000000000000000000900467ffffffffffffffff165f0361226457607480547fffffffffffffffffffffffffffffffffffffffffffffffff00000000000000001667ffffffffffffffff8681169182179092555f90815260756020526040902083905560795416156121c457607980547fffffffffffffffffffffffffffffffff000000000000000000000000000000001690555b6040517f33d6247d000000000000000000000000000000000000000000000000000000008152600481018490527f000000000000000000000000000000000000000000000000000000000000000073ffffffffffffffffffffffffffffffffffffffff16906333d6247d906024015f604051808303815f87803b158015612249575f80fd5b505af115801561225b573d5f803e3d5ffd5b50505050612332565b61226c61479b565b6079805467ffffffffffffffff16905f612285836159bc565b825467ffffffffffffffff9182166101009390930a92830292820219169190911790915560408051608081018252428316815287831660208083019182528284018981526060840189815260795487165f908152607890935294909120925183549251861668010000000000000000027fffffffffffffffffffffffffffffffff000000000000000000000000000000009093169516949094171781559151600183015551600290910155505b604051828152339067ffffffffffffffff8616907f9c72852172521097ba7e1482e6b44b351323df0155f97f4ea18fcec28e1f59669060200161103b565b607a5473ffffffffffffffffffffffffffffffffffffffff1633146123c1576040517f4755657900000000000000000000000000000000000000000000000000000000815260040160405180910390fd5b606f80547fff0000000000000000000000000000000000000000ffffffffffffffffffffff166b01000000000000000000000073ffffffffffffffffffffffffffffffffffffffff8416908102919091179091556040519081527ff54144f9611984021529f814a1cb6a41e22c58351510a0d9f7e822618abb9cc090602001610ca0565b61244d614c13565b6124565f614c94565b565b60335473ffffffffffffffffffffffffffffffffffffffff1633146125bd575f612480612c62565b90508067ffffffffffffffff168267ffffffffffffffff16116124cf576040517f812a372d00000000000000000000000000000000000000000000000000000000815260040160405180910390fd5b60735467ffffffffffffffff6801000000000000000090910481169083161180612514575067ffffffffffffffff8083165f9081526072602052604090206001015416155b1561254b576040517f98c5c01400000000000000000000000000000000000000000000000000000000815260040160405180910390fd5b67ffffffffffffffff8083165f9081526072602052604090206001015442916125799162093a8091166158f8565b67ffffffffffffffff1611156125bb576040517fd257555a00000000000000000000000000000000000000000000000000000000815260040160405180910390fd5b505b611d42614d0a565b607b5473ffffffffffffffffffffffffffffffffffffffff163314612616576040517fd1ec4b2300000000000000000000000000000000000000000000000000000000815260040160405180910390fd5b607b54607a80547fffffffffffffffffffffffff00000000000000000000000000000000000000001673ffffffffffffffffffffffffffffffffffffffff90921691821790556040519081527f056dc487bbf0795d0bbb1b4f0af523a855503cff740bfb4d5475f7a90c091e8e9060200160405180910390a1565b6040517f70a082310000000000000000000000000000000000000000000000000000000081523060048201525f90819073ffffffffffffffffffffffffffffffffffffffff7f000000000000000000000000000000000000000000000000000000000000000016906370a0823190602401602060405180830381865afa15801561271d573d5f803e3d5ffd5b505050506040513d601f19601f8201168201806040525081019061274191906159e2565b90505f61274c612c62565b60735467ffffffffffffffff6801000000000000000082048116916127a49170010000000000000000000000000000000082048116917801000000000000000000000000000000000000000000000000900416615a99565b6127ae91906158f8565b6127b89190615a99565b67ffffffffffffffff169050805f036127d3575f9250505090565b6127dd8183615b11565b9250505090565b606f5460ff1615612821576040517f2f0047fc00000000000000000000000000000000000000000000000000000000815260040160405180910390fd5b6128308787878787878761428a565b67ffffffffffffffff84165f908152607560209081526040918290205482519081529081018490527f1f44c21118c4603cfb4e1b621dbcfa2b73efcececee2b99b620b2953d33a7010910160405180910390a161288b614d0a565b50505050505050565b607a5473ffffffffffffffffffffffffffffffffffffffff1633146128e5576040517f4755657900000000000000000000000000000000000000000000000000000000815260040160405180910390fd5b62093a8067ffffffffffffffff8216111561292c576040517fcc96507000000000000000000000000000000000000000000000000000000000815260040160405180910390fd5b606f5460ff166129935760795467ffffffffffffffff700100000000000000000000000000000000909104811690821610612993576040517f48a05a9000000000000000000000000000000000000000000000000000000000815260040160405180910390fd5b607980547fffffffffffffffff0000000000000000ffffffffffffffffffffffffffffffff1670010000000000000000000000000000000067ffffffffffffffff8416908102919091179091556040519081527fc4121f4e22c69632ebb7cf1f462be0511dc034f999b52013eddfb24aab765c7590602001610ca0565b607a5473ffffffffffffffffffffffffffffffffffffffff163314612a61576040517f4755657900000000000000000000000000000000000000000000000000000000815260040160405180910390fd5b620151808167ffffffffffffffff161115612aa8576040517fe067dfe800000000000000000000000000000000000000000000000000000000815260040160405180910390fd5b606f80547fffffffffffffffffffffffffffffffffffffffffffffff0000000000000000ff1661010067ffffffffffffffff8416908102919091179091556040519081527f1b023231a1ab6b5d93992f168fb44498e1a7e64cef58daff6f1c216de6a68c2890602001610ca0565b607a5473ffffffffffffffffffffffffffffffffffffffff163314612b67576040517f4755657900000000000000000000000000000000000000000000000000000000815260040160405180910390fd5b607b80547fffffffffffffffffffffffff00000000000000000000000000000000000000001673ffffffffffffffffffffffffffffffffffffffff83169081179091556040519081527fa5b56b7906fd0a20e3f35120dd8343db1e12e037a6c90111c7e42885e82a1ce690602001610ca0565b5f67ffffffff0000000167ffffffffffffffff8316108015612c11575067ffffffff00000001604083901c67ffffffffffffffff16105b8015612c32575067ffffffff00000001608083901c67ffffffffffffffff16105b8015612c49575067ffffffff0000000160c083901c105b15612c5657506001919050565b505f919050565b919050565b6079545f9067ffffffffffffffff1615612ca4575060795467ffffffffffffffff9081165f908152607860205260409020546801000000000000000090041690565b5060745467ffffffffffffffff1690565b607a5473ffffffffffffffffffffffffffffffffffffffff163314612d06576040517f4755657900000000000000000000000000000000000000000000000000000000815260040160405180910390fd5b6076612d128282615b69565b507f6b8f723a4c7a5335cafae8a598a0aa0301be1387c037dccc085b62add6448b2081604051610ca09190615326565b5f54610100900460ff1615808015612d6057505f54600160ff909116105b80612d795750303b158015612d7957505f5460ff166001145b612e0a576040517f08c379a000000000000000000000000000000000000000000000000000000000815260206004820152602e60248201527f496e697469616c697a61626c653a20636f6e747261637420697320616c72656160448201527f647920696e697469616c697a656400000000000000000000000000000000000060648201526084015b60405180910390fd5b5f80547fffffffffffffffffffffffffffffffffffffffffffffffffffffffffffffff001660011790558015612e66575f80547fffffffffffffffffffffffffffffffffffffffffffffffffffffffffffff00ff166101001790555b612e7360208801886155da565b607a80547fffffffffffffffffffffffff00000000000000000000000000000000000000001673ffffffffffffffffffffffffffffffffffffffff92909216919091179055612ec860408801602089016155da565b606f805473ffffffffffffffffffffffffffffffffffffffff929092166b010000000000000000000000027fff0000000000000000000000000000000000000000ffffffffffffffffffffff909216919091179055612f2d60808801606089016155da565b6074805473ffffffffffffffffffffffffffffffffffffffff9290921668010000000000000000027fffffffff0000000000000000000000000000000000000000ffffffffffffffff9092169190911790555f805260756020527ff9e3fbf150b7a0077118526f473c53cb4734f166167e2c6213e3567dd390b4ad8690556076612fb78682615b69565b506077612fc48582615b69565b5062093a80612fd96060890160408a016154b0565b67ffffffffffffffff16111561301b576040517fcc96507000000000000000000000000000000000000000000000000000000000815260040160405180910390fd5b61302b60608801604089016154b0565b6079805467ffffffffffffffff92909216700100000000000000000000000000000000027fffffffffffffffff0000000000000000ffffffffffffffffffffffffffffffff90921691909117905562093a8061308d60a0890160808a016154b0565b67ffffffffffffffff1611156130cf576040517f1d06e87900000000000000000000000000000000000000000000000000000000815260040160405180910390fd5b6130df60a08801608089016154b0565b6079805477ffffffffffffffffffffffffffffffffffffffffffffffff16780100000000000000000000000000000000000000000000000067ffffffffffffffff93909316929092029190911790555f607055606f80547fffffffffffffffffffffffffffffffffffffffffff00000000000000000000ff166a03ea000000000000070800179055607b80547fffffff000000000000000000ffffffffffffffffffffffffffffffffffffffff167c01000000000006978000000000000000000000000000000000000000001790556131b6614d8d565b7fed7be53c9f1a96a481223b15568a5b1a475e01a74b347d6ca187c8bf0c078cd65f7f0000000000000000000000000000000000000000000000000000000000000000858560405161320b9493929190615c81565b60405180910390a1801561288b575f80547fffffffffffffffffffffffffffffffffffffffffffffffffffffffffffff00ff169055604051600181527f7f26b83ff96e1f2b6a682f133852f6798a09c465da95921460cefb38474024989060200160405180910390a150505050505050565b607b547c0100000000000000000000000000000000000000000000000000000000900460ff16156132da576040517f24eff8c300000000000000000000000000000000000000000000000000000000815260040160405180910390fd5b606f5460ff1615613317576040517f2f0047fc00000000000000000000000000000000000000000000000000000000815260040160405180910390fd5b805f819003613352576040517fcb591a5f00000000000000000000000000000000000000000000000000000000815260040160405180910390fd5b6103e881111561338e576040517fb59f753a00000000000000000000000000000000000000000000000000000000815260040160405180910390fd5b60735467ffffffffffffffff780100000000000000000000000000000000000000000000000082048116916133d9918491700100000000000000000000000000000000900416615cb8565b1115613411576040517fc630a00d00000000000000000000000000000000000000000000000000000000815260040160405180910390fd5b60735467ffffffffffffffff68010000000000000000820481165f8181526072602052604081205491937001000000000000000000000000000000009004909216915b848110156136b6575f87878381811061346f5761346f615920565b90506020028101906134819190615ccb565b61348a90615d07565b905083613496816159bc565b825180516020918201208185015160408087015190519499509194505f936134f79386939101928352602083019190915260c01b7fffffffffffffffff00000000000000000000000000000000000000000000000016604082015260480190565b604080517fffffffffffffffffffffffffffffffffffffffffffffffffffffffffffffffe0818403018152918152815160209283012067ffffffffffffffff89165f9081526071909352912054909150811461357f576040517fce3d755e00000000000000000000000000000000000000000000000000000000815260040160405180910390fd5b67ffffffffffffffff86165f908152607160205260408120556135a3600189615aba565b84036136125742607b60149054906101000a900467ffffffffffffffff1684604001516135d091906158f8565b67ffffffffffffffff161115613612576040517fc44a082100000000000000000000000000000000000000000000000000000000815260040160405180910390fd5b6020838101516040805192830188905282018490526060808301919091524260c01b7fffffffffffffffff00000000000000000000000000000000000000000000000016608083015233901b7fffffffffffffffffffffffffffffffffffffffff000000000000000000000000166088820152609c0160405160208183030381529060405280519060200120945050505080806136ae906159f9565b915050613454565b506136c184846158f8565b6073805467ffffffffffffffff4281167fffffffffffffffffffffffffffffffffffffffffffffffff00000000000000009092168217808455604080516060810182528781526020808201958652680100000000000000009384900485168284019081528589165f818152607290935284832093518455965160019390930180549151871686027fffffffffffffffffffffffffffffffff0000000000000000000000000000000090921693871693909317179091558554938916700100000000000000000000000000000000027fffffffffffffffff0000000000000000ffffffffffffffffffffffffffffffff938602939093167fffffffffffffffff00000000000000000000000000000000ffffffffffffffff90941693909317919091179093559151929550917f648a61dd2438f072f5a1960939abd30f37aea80d2e94c9792ad142d3e0a490a49190a2505050505050565b607a5473ffffffffffffffffffffffffffffffffffffffff163314613869576040517f4755657900000000000000000000000000000000000000000000000000000000815260040160405180910390fd5b7f000000000000000000000000000000000000000000000000000000000000000073ffffffffffffffffffffffffffffffffffffffff1663dbc169766040518163ffffffff1660e01b81526004015f604051808303815f87803b1580156138ce575f80fd5b505af11580156138e0573d5f803e3d5ffd5b50505050612456614e2c565b607b547c0100000000000000000000000000000000000000000000000000000000900460ff1615613949576040517f24eff8c300000000000000000000000000000000000000000000000000000000815260040160405180910390fd5b606f5460ff1615613986576040517f2f0047fc00000000000000000000000000000000000000000000000000000000815260040160405180910390fd5b5f61398f611fd5565b9050818111156139cb576040517f4732fdb500000000000000000000000000000000000000000000000000000000815260040160405180910390fd5b611388831115613a07576040517fa29a6c7c00000000000000000000000000000000000000000000000000000000815260040160405180910390fd5b613a4973ffffffffffffffffffffffffffffffffffffffff7f0000000000000000000000000000000000000000000000000000000000000000163330846146b9565b5f7f000000000000000000000000000000000000000000000000000000000000000073ffffffffffffffffffffffffffffffffffffffff16633ed691ef6040518163ffffffff1660e01b8152600401602060405180830381865afa158015613ab3573d5f803e3d5ffd5b505050506040513d601f19601f82011682018060405250810190613ad791906159e2565b60738054919250780100000000000000000000000000000000000000000000000090910467ffffffffffffffff16906018613b11836159bc565b91906101000a81548167ffffffffffffffff021916908367ffffffffffffffff160217905550508484604051613b48929190615d93565b60408051918290038220602083015281018290527fffffffffffffffff0000000000000000000000000000000000000000000000004260c01b166060820152606801604080518083037fffffffffffffffffffffffffffffffffffffffffffffffffffffffffffffffe001815291815281516020928301206073547801000000000000000000000000000000000000000000000000900467ffffffffffffffff165f9081526071909352912055323303613c76576073546040805183815233602082015260609181018290525f91810191909152780100000000000000000000000000000000000000000000000090910467ffffffffffffffff16907ff94bb37db835f1ab585ee00041849a09b12cd081d77fa15ca070757619cbc9319060800160405180910390a2613cd5565b607360189054906101000a900467ffffffffffffffff1667ffffffffffffffff167ff94bb37db835f1ab585ee00041849a09b12cd081d77fa15ca070757619cbc93182338888604051613ccc9493929190615da2565b60405180910390a25b5050505050565b607a5473ffffffffffffffffffffffffffffffffffffffff163314613d2d576040517f4755657900000000000000000000000000000000000000000000000000000000815260040160405180910390fd5b607480547fffffffff0000000000000000000000000000000000000000ffffffffffffffff166801000000000000000073ffffffffffffffffffffffffffffffffffffffff8416908102919091179091556040519081527f61f8fec29495a3078e9271456f05fb0707fd4e41f7661865f80fc437d06681ca90602001610ca0565b613db6614c13565b73ffffffffffffffffffffffffffffffffffffffff8116613e59576040517f08c379a000000000000000000000000000000000000000000000000000000000815260206004820152602660248201527f4f776e61626c653a206e6577206f776e657220697320746865207a65726f206160448201527f64647265737300000000000000000000000000000000000000000000000000006064820152608401612e01565b611d4281614c94565b607a5473ffffffffffffffffffffffffffffffffffffffff163314613eb3576040517f4755657900000000000000000000000000000000000000000000000000000000815260040160405180910390fd5b61ffff16607055565b5f80613ec6612c62565b905067ffffffffffffffff881615613f955760795467ffffffffffffffff9081169089161115613f22576040517fbb14c20500000000000000000000000000000000000000000000000000000000815260040160405180910390fd5b67ffffffffffffffff8089165f908152607860205260409020600281015481549094509091898116680100000000000000009092041614613f8f576040517f2bd2e3e700000000000000000000000000000000000000000000000000000000815260040160405180910390fd5b50614035565b67ffffffffffffffff87165f90815260756020526040902054915081613fe7576040517f4997b98600000000000000000000000000000000000000000000000000000000815260040160405180910390fd5b8067ffffffffffffffff168767ffffffffffffffff161115614035576040517f1e56e9e200000000000000000000000000000000000000000000000000000000815260040160405180910390fd5b8067ffffffffffffffff168667ffffffffffffffff1611614082576040517fb9b18f5700000000000000000000000000000000000000000000000000000000815260040160405180910390fd5b5f6140908888888689610cab565b90505f7f30644e72e131a029b85045b68181585d2833e84879b9709143e1f593f00000016002836040516140c49190615dd7565b602060405180830381855afa1580156140df573d5f803e3d5ffd5b5050506040513d601f19601f8201168201806040525081019061410291906159e2565b61410c9190615de8565b6040805160208101825282815290517f9121da8a00000000000000000000000000000000000000000000000000000000815291925073ffffffffffffffffffffffffffffffffffffffff7f00000000000000000000000000000000000000000000000000000000000000001691639121da8a9161418e91899190600401615dfb565b602060405180830381865afa1580156141a9573d5f803e3d5ffd5b505050506040513d601f19601f820116820180604052508101906141cd9190615e35565b614203576040517f09bde33900000000000000000000000000000000000000000000000000000000815260040160405180910390fd5b6070545f036142155750505050614282565b61427d33614223858b615a99565b67ffffffffffffffff16614235612691565b61423f9190615acd565b73ffffffffffffffffffffffffffffffffffffffff7f0000000000000000000000000000000000000000000000000000000000000000169190614eba565b505050505b505050505050565b5f67ffffffffffffffff8816156143565760795467ffffffffffffffff90811690891611156142e5576040517fbb14c20500000000000000000000000000000000000000000000000000000000815260040160405180910390fd5b5067ffffffffffffffff8088165f908152607860205260409020600281015481549092888116680100000000000000009092041614614350576040517f2bd2e3e700000000000000000000000000000000000000000000000000000000815260040160405180910390fd5b506143f1565b5067ffffffffffffffff85165f90815260756020526040902054806143a7576040517f4997b98600000000000000000000000000000000000000000000000000000000815260040160405180910390fd5b60745467ffffffffffffffff90811690871611156143f1576040517f1e56e9e200000000000000000000000000000000000000000000000000000000815260040160405180910390fd5b60795467ffffffffffffffff908116908816118061442357508767ffffffffffffffff168767ffffffffffffffff1611155b8061444a575060795467ffffffffffffffff68010000000000000000909104811690881611155b15614481576040517fbfa7079f00000000000000000000000000000000000000000000000000000000815260040160405180910390fd5b67ffffffffffffffff8781165f908152607860205260409020546801000000000000000090048116908616146144e3576040517f32a2a77f00000000000000000000000000000000000000000000000000000000815260040160405180910390fd5b5f6144f18787878588610cab565b90505f7f30644e72e131a029b85045b68181585d2833e84879b9709143e1f593f00000016002836040516145259190615dd7565b602060405180830381855afa158015614540573d5f803e3d5ffd5b5050506040513d601f19601f8201168201806040525081019061456391906159e2565b61456d9190615de8565b6040805160208101825282815290517f9121da8a00000000000000000000000000000000000000000000000000000000815291925073ffffffffffffffffffffffffffffffffffffffff7f00000000000000000000000000000000000000000000000000000000000000001691639121da8a916145ef91889190600401615dfb565b602060405180830381865afa15801561460a573d5f803e3d5ffd5b505050506040513d601f19601f8201168201806040525081019061462e9190615e35565b614664576040517f09bde33900000000000000000000000000000000000000000000000000000000815260040160405180910390fd5b67ffffffffffffffff89165f9081526078602052604090206002015485900361427d576040517fa47276bd00000000000000000000000000000000000000000000000000000000815260040160405180910390fd5b60405173ffffffffffffffffffffffffffffffffffffffff808516602483015283166044820152606481018290526147959085907f23b872dd00000000000000000000000000000000000000000000000000000000906084015b604080517fffffffffffffffffffffffffffffffffffffffffffffffffffffffffffffffe08184030181529190526020810180517bffffffffffffffffffffffffffffffffffffffffffffffffffffffff167fffffffff0000000000000000000000000000000000000000000000000000000090931692909217909152614f15565b50505050565b60795467ffffffffffffffff680100000000000000008204811691161115612456576079545f906147e39068010000000000000000900467ffffffffffffffff1660016158f8565b90506147ee81611253565b15611d42576079545f9060029061481090849067ffffffffffffffff16615a99565b61481a9190615e54565b61482490836158f8565b905061482f81611253565b156148415761483d81614846565b5050565b61483d825b60795467ffffffffffffffff680100000000000000009091048116908216111580614880575060795467ffffffffffffffff908116908216115b156148b7576040517fd086b70b00000000000000000000000000000000000000000000000000000000815260040160405180910390fd5b67ffffffffffffffff8181165f81815260786020908152604080832080546074805468010000000000000000928390049098167fffffffffffffffffffffffffffffffffffffffffffffffff000000000000000090981688179055600282015487865260759094529382902092909255607980547fffffffffffffffffffffffffffffffff0000000000000000ffffffffffffffff169390940292909217909255600182015490517f33d6247d00000000000000000000000000000000000000000000000000000000815260048101919091529091907f000000000000000000000000000000000000000000000000000000000000000073ffffffffffffffffffffffffffffffffffffffff16906333d6247d906024015f604051808303815f87803b1580156149e5575f80fd5b505af11580156149f7573d5f803e3d5ffd5b505050508267ffffffffffffffff168167ffffffffffffffff167f328d3c6c0fd6f1be0515e422f2d87e59f25922cbc2233568515a0c4bc3f8510e8460020154604051614a4691815260200190565b60405180910390a3505050565b5f614a5c612c62565b9050815f80614a6b8484615a99565b606f5467ffffffffffffffff91821692505f91614a8e9161010090041642615aba565b90505b8467ffffffffffffffff168467ffffffffffffffff1614614b185767ffffffffffffffff8085165f9081526072602052604090206001810154909116821015614af657600181015468010000000000000000900467ffffffffffffffff169450614b12565b614b008686615a99565b67ffffffffffffffff16935050614b18565b50614a91565b5f614b238484615aba565b905083811015614b7a57808403600c8111614b3e5780614b41565b600c5b9050806103e80a81606f60099054906101000a900461ffff1661ffff160a6070540281614b7057614b70615ae4565b0460705550614be9565b838103600c8111614b8b5780614b8e565b600c5b90505f816103e80a82606f60099054906101000a900461ffff1661ffff160a670de0b6b3a76400000281614bc457614bc4615ae4565b04905080607054670de0b6b3a76400000281614be257614be2615ae4565b0460705550505b683635c9adc5dea000006070541115614c0e57683635c9adc5dea0000060705561288b565b61288b565b60335473ffffffffffffffffffffffffffffffffffffffff163314612456576040517f08c379a000000000000000000000000000000000000000000000000000000000815260206004820181905260248201527f4f776e61626c653a2063616c6c6572206973206e6f7420746865206f776e65726044820152606401612e01565b6033805473ffffffffffffffffffffffffffffffffffffffff8381167fffffffffffffffffffffffff0000000000000000000000000000000000000000831681179093556040519116919082907f8be0079c531659141344cd1fd0a4f28419497f9722a3daafe3b4186f6b6457e0905f90a35050565b7f000000000000000000000000000000000000000000000000000000000000000073ffffffffffffffffffffffffffffffffffffffff16632072f6c56040518163ffffffff1660e01b81526004015f604051808303815f87803b158015614d6f575f80fd5b505af1158015614d81573d5f803e3d5ffd5b50505050612456615020565b5f54610100900460ff16614e23576040517f08c379a000000000000000000000000000000000000000000000000000000000815260206004820152602b60248201527f496e697469616c697a61626c653a20636f6e7472616374206973206e6f74206960448201527f6e697469616c697a696e670000000000000000000000000000000000000000006064820152608401612e01565b61245633614c94565b606f5460ff16614e68576040517f5386698100000000000000000000000000000000000000000000000000000000815260040160405180910390fd5b606f80547fffffffffffffffffffffffffffffffffffffffffffffffffffffffffffffff001690556040517f1e5e34eea33501aecf2ebec9fe0e884a40804275ea7fe10b2ba084c8374308b3905f90a1565b60405173ffffffffffffffffffffffffffffffffffffffff8316602482015260448101829052614f109084907fa9059cbb0000000000000000000000000000000000000000000000000000000090606401614713565b505050565b5f614f76826040518060400160405280602081526020017f5361666545524332303a206c6f772d6c6576656c2063616c6c206661696c65648152508573ffffffffffffffffffffffffffffffffffffffff166150b29092919063ffffffff16565b805190915015614f105780806020019051810190614f949190615e35565b614f10576040517f08c379a000000000000000000000000000000000000000000000000000000000815260206004820152602a60248201527f5361666545524332303a204552433230206f7065726174696f6e20646964206e60448201527f6f742073756363656564000000000000000000000000000000000000000000006064820152608401612e01565b606f5460ff161561505d576040517f2f0047fc00000000000000000000000000000000000000000000000000000000815260040160405180910390fd5b606f80547fffffffffffffffffffffffffffffffffffffffffffffffffffffffffffffff001660011790556040517f2261efe5aef6fedc1fd1550b25facc9181745623049c7901287030b9ad1a5497905f90a1565b60606150c084845f856150c8565b949350505050565b60608247101561515a576040517f08c379a000000000000000000000000000000000000000000000000000000000815260206004820152602660248201527f416464726573733a20696e73756666696369656e742062616c616e636520666f60448201527f722063616c6c00000000000000000000000000000000000000000000000000006064820152608401612e01565b5f808673ffffffffffffffffffffffffffffffffffffffff1685876040516151829190615dd7565b5f6040518083038185875af1925050503d805f81146151bc576040519150601f19603f3d011682016040523d82523d5f602084013e6151c1565b606091505b50915091506151d2878383876151dd565b979650505050505050565b606083156152725782515f0361526b5773ffffffffffffffffffffffffffffffffffffffff85163b61526b576040517f08c379a000000000000000000000000000000000000000000000000000000000815260206004820152601d60248201527f416464726573733a2063616c6c20746f206e6f6e2d636f6e74726163740000006044820152606401612e01565b50816150c0565b6150c083838151156152875781518083602001fd5b806040517f08c379a0000000000000000000000000000000000000000000000000000000008152600401612e019190615326565b5f5b838110156152d55781810151838201526020016152bd565b50505f910152565b5f81518084526152f48160208601602086016152bb565b601f017fffffffffffffffffffffffffffffffffffffffffffffffffffffffffffffffe0169290920160200192915050565b602081525f61533860208301846152dd565b9392505050565b5f6020828403121561534f575f80fd5b813561ffff81168114615338575f80fd5b803567ffffffffffffffff81168114612c5d575f80fd5b5f805f805f60a0868803121561538b575f80fd5b61539486615360565b94506153a260208701615360565b94979496505050506040830135926060810135926080909101359150565b8061030081018310156153d1575f80fd5b92915050565b5f805f805f806103a087890312156153ed575f80fd5b6153f687615360565b955061540460208801615360565b945061541260408801615360565b9350606087013592506080870135915061542f8860a089016153c0565b90509295509295509295565b5f805f805f805f6103c0888a031215615452575f80fd5b61545b88615360565b965061546960208901615360565b955061547760408901615360565b945061548560608901615360565b93506080880135925060a088013591506154a28960c08a016153c0565b905092959891949750929550565b5f602082840312156154c0575f80fd5b61533882615360565b803573ffffffffffffffffffffffffffffffffffffffff81168114612c5d575f80fd5b5f8083601f8401126154fc575f80fd5b50813567ffffffffffffffff811115615513575f80fd5b60208301915083602082850101111561552a575f80fd5b9250929050565b5f805f805f60608688031215615545575f80fd5b853567ffffffffffffffff8082111561555c575f80fd5b818801915088601f83011261556f575f80fd5b81358181111561557d575f80fd5b8960208260071b8501011115615591575f80fd5b602083019750809650506155a7602089016154c9565b945060408801359150808211156155bc575f80fd5b506155c9888289016154ec565b969995985093965092949392505050565b5f602082840312156155ea575f80fd5b615338826154c9565b5f60208284031215615603575f80fd5b5035919050565b7f4e487b71000000000000000000000000000000000000000000000000000000005f52604160045260245ffd5b5f67ffffffffffffffff808411156156515761565161560a565b604051601f85017fffffffffffffffffffffffffffffffffffffffffffffffffffffffffffffffe0908116603f011681019082821181831017156156975761569761560a565b816040528093508581528686860111156156af575f80fd5b858560208301375f602087830101525050509392505050565b5f82601f8301126156d7575f80fd5b61533883833560208501615637565b5f602082840312156156f6575f80fd5b813567ffffffffffffffff81111561570c575f80fd5b6150c0848285016156c8565b5f805f805f8086880361012081121561572f575f80fd5b60a081121561573c575f80fd5b5086955060a0870135945060c087013567ffffffffffffffff80821115615761575f80fd5b61576d8a838b016156c8565b955060e0890135915080821115615782575f80fd5b61578e8a838b016156c8565b94506101008901359150808211156157a4575f80fd5b506157b189828a016154ec565b979a9699509497509295939492505050565b5f80602083850312156157d4575f80fd5b823567ffffffffffffffff808211156157eb575f80fd5b818501915085601f8301126157fe575f80fd5b81358181111561580c575f80fd5b8660208260051b8501011115615820575f80fd5b60209290920196919550909350505050565b5f805f60408486031215615844575f80fd5b833567ffffffffffffffff81111561585a575f80fd5b615866868287016154ec565b909790965060209590950135949350505050565b600181811c9082168061588e57607f821691505b6020821081036158c5577f4e487b71000000000000000000000000000000000000000000000000000000005f52602260045260245ffd5b50919050565b7f4e487b71000000000000000000000000000000000000000000000000000000005f52601160045260245ffd5b67ffffffffffffffff818116838216019080821115615919576159196158cb565b5092915050565b7f4e487b71000000000000000000000000000000000000000000000000000000005f52603260045260245ffd5b5f6080828403121561595d575f80fd5b6040516080810181811067ffffffffffffffff821117156159805761598061560a565b8060405250823581526020830135602082015261599f60408401615360565b60408201526159b060608401615360565b60608201529392505050565b5f67ffffffffffffffff8083168181036159d8576159d86158cb565b6001019392505050565b5f602082840312156159f2575f80fd5b5051919050565b5f7fffffffffffffffffffffffffffffffffffffffffffffffffffffffffffffffff8203615a2957615a296158cb565b5060010190565b81835281816020850137505f602082840101525f60207fffffffffffffffffffffffffffffffffffffffffffffffffffffffffffffffe0601f840116840101905092915050565b838152604060208201525f615a90604083018486615a30565b95945050505050565b67ffffffffffffffff828116828216039080821115615919576159196158cb565b818103818111156153d1576153d16158cb565b80820281158282048414176153d1576153d16158cb565b7f4e487b71000000000000000000000000000000000000000000000000000000005f52601260045260245ffd5b5f82615b1f57615b1f615ae4565b500490565b601f821115614f10575f81815260208120601f850160051c81016020861015615b4a5750805b601f850160051c820191505b8181101561428257828155600101615b56565b815167ffffffffffffffff811115615b8357615b8361560a565b615b9781615b91845461587a565b84615b24565b602080601f831160018114615be9575f8415615bb35750858301515b7fffffffffffffffffffffffffffffffffffffffffffffffffffffffffffffffff600386901b1c1916600185901b178555614282565b5f858152602081207fffffffffffffffffffffffffffffffffffffffffffffffffffffffffffffffe08616915b82811015615c3557888601518255948401946001909101908401615c16565b5085821015615c7157878501517fffffffffffffffffffffffffffffffffffffffffffffffffffffffffffffffff600388901b60f8161c191681555b5050505050600190811b01905550565b5f67ffffffffffffffff808716835280861660208401525060606040830152615cae606083018486615a30565b9695505050505050565b808201808211156153d1576153d16158cb565b5f82357fffffffffffffffffffffffffffffffffffffffffffffffffffffffffffffffa1833603018112615cfd575f80fd5b9190910192915050565b5f60608236031215615d17575f80fd5b6040516060810167ffffffffffffffff8282108183111715615d3b57615d3b61560a565b816040528435915080821115615d4f575f80fd5b50830136601f820112615d60575f80fd5b615d6f36823560208401615637565b82525060208301356020820152615d8860408401615360565b604082015292915050565b818382375f9101908152919050565b84815273ffffffffffffffffffffffffffffffffffffffff84166020820152606060408201525f615cae606083018486615a30565b5f8251615cfd8184602087016152bb565b5f82615df657615df6615ae4565b500690565b6103208101610300808584378201835f5b6001811015615e2b578151835260209283019290910190600101615e0c565b5050509392505050565b5f60208284031215615e45575f80fd5b81518015158114615338575f80fd5b5f67ffffffffffffffff80841680615e6e57615e6e615ae4565b9216919091049291505056fea2646970667358221220f1506a216acf03beb732ac641476301e66ae3fc562f6dc55470da0c748708aac64736f6c63430008140033",
  "linkReferences": {},
  "deployedLinkReferences": {}
}